{
	"task1/reverseString.sol": {
		"ReverseString": {
			"abi": [
				{
					"inputs": [
						{
							"internalType": "string",
							"name": "s",
							"type": "string"
						}
					],
					"name": "reverse",
					"outputs": [
						{
							"internalType": "string",
							"name": "",
							"type": "string"
						}
					],
					"stateMutability": "pure",
					"type": "function"
				},
				{
					"inputs": [
						{
							"internalType": "string",
							"name": "str",
							"type": "string"
						}
					],
					"name": "reverseZh",
					"outputs": [
						{
							"internalType": "string",
							"name": "",
							"type": "string"
						}
					],
					"stateMutability": "pure",
					"type": "function"
				}
			],
			"devdoc": {
				"kind": "dev",
				"methods": {},
				"version": 1
			},
			"evm": {
				"assembly": "    /* \"task1/reverseString.sol\":58:1854  contract ReverseString{... */\n  mstore(0x40, 0x80)\n  callvalue\n  dup1\n  iszero\n  tag_1\n  jumpi\n  0x00\n  dup1\n  revert\ntag_1:\n  pop\n  dataSize(sub_0)\n  dup1\n  dataOffset(sub_0)\n  0x00\n  codecopy\n  0x00\n  return\nstop\n\nsub_0: assembly {\n        /* \"task1/reverseString.sol\":58:1854  contract ReverseString{... */\n      mstore(0x40, 0x80)\n      callvalue\n      dup1\n      iszero\n      tag_1\n      jumpi\n      0x00\n      dup1\n      revert\n    tag_1:\n      pop\n      jumpi(tag_2, lt(calldatasize, 0x04))\n      shr(0xe0, calldataload(0x00))\n      dup1\n      0x064767aa\n      eq\n      tag_3\n      jumpi\n      dup1\n      0xf7c6c0e4\n      eq\n      tag_4\n      jumpi\n    tag_2:\n      0x00\n      dup1\n      revert\n        /* \"task1/reverseString.sol\":89:453  function reverse(string memory s) public pure returns(string memory){... */\n    tag_3:\n      tag_5\n      0x04\n      dup1\n      calldatasize\n      sub\n      dup2\n      add\n      swap1\n      tag_6\n      swap2\n      swap1\n      tag_7\n      jump\t// in\n    tag_6:\n      tag_8\n      jump\t// in\n    tag_5:\n      mload(0x40)\n      tag_9\n      swap2\n      swap1\n      tag_10\n      jump\t// in\n    tag_9:\n      mload(0x40)\n      dup1\n      swap2\n      sub\n      swap1\n      return\n        /* \"task1/reverseString.sol\":459:1851  function reverseZh(string memory str) public pure returns (string memory) {... */\n    tag_4:\n      tag_11\n      0x04\n      dup1\n      calldatasize\n      sub\n      dup2\n      add\n      swap1\n      tag_12\n      swap2\n      swap1\n      tag_7\n      jump\t// in\n    tag_12:\n      tag_13\n      jump\t// in\n    tag_11:\n      mload(0x40)\n      tag_14\n      swap2\n      swap1\n      tag_10\n      jump\t// in\n    tag_14:\n      mload(0x40)\n      dup1\n      swap2\n      sub\n      swap1\n      return\n        /* \"task1/reverseString.sol\":89:453  function reverse(string memory s) public pure returns(string memory){... */\n    tag_8:\n        /* \"task1/reverseString.sol\":143:156  string memory */\n      0x60\n        /* \"task1/reverseString.sol\":168:189  bytes memory strBytes */\n      0x00\n        /* \"task1/reverseString.sol\":198:199  s */\n      dup3\n        /* \"task1/reverseString.sol\":168:200  bytes memory strBytes = bytes(s) */\n      swap1\n      pop\n        /* \"task1/reverseString.sol\":211:219  uint len */\n      0x00\n        /* \"task1/reverseString.sol\":222:230  strBytes */\n      dup2\n        /* \"task1/reverseString.sol\":222:237  strBytes.length */\n      mload\n        /* \"task1/reverseString.sol\":211:237  uint len = strBytes.length */\n      swap1\n      pop\n        /* \"task1/reverseString.sol\":255:261  uint i */\n      0x00\n        /* \"task1/reverseString.sol\":250:410  for (uint i=0;i<len/2;i++){... */\n    tag_16:\n        /* \"task1/reverseString.sol\":270:271  2 */\n      0x02\n        /* \"task1/reverseString.sol\":266:269  len */\n      dup3\n        /* \"task1/reverseString.sol\":266:271  len/2 */\n      tag_19\n      swap2\n      swap1\n      tag_20\n      jump\t// in\n    tag_19:\n        /* \"task1/reverseString.sol\":264:265  i */\n      dup2\n        /* \"task1/reverseString.sol\":264:271  i<len/2 */\n      lt\n        /* \"task1/reverseString.sol\":250:410  for (uint i=0;i<len/2;i++){... */\n      iszero\n      tag_17\n      jumpi\n        /* \"task1/reverseString.sol\":291:301  bytes1 tmp */\n      0x00\n        /* \"task1/reverseString.sol\":303:311  strBytes */\n      dup4\n        /* \"task1/reverseString.sol\":312:313  i */\n      dup3\n        /* \"task1/reverseString.sol\":303:314  strBytes[i] */\n      dup2\n      mload\n      dup2\n      lt\n      tag_21\n      jumpi\n      tag_22\n      tag_23\n      jump\t// in\n    tag_22:\n    tag_21:\n      0x20\n      add\n      add\n      mload\n      0xf8\n      shr\n      0xf8\n      shl\n        /* \"task1/reverseString.sol\":291:314  bytes1 tmp =strBytes[i] */\n      swap1\n      pop\n        /* \"task1/reverseString.sol\":343:351  strBytes */\n      dup4\n        /* \"task1/reverseString.sol\":358:359  1 */\n      0x01\n        /* \"task1/reverseString.sol\":356:357  i */\n      dup4\n        /* \"task1/reverseString.sol\":352:355  len */\n      dup6\n        /* \"task1/reverseString.sol\":352:357  len-i */\n      tag_24\n      swap2\n      swap1\n      tag_25\n      jump\t// in\n    tag_24:\n        /* \"task1/reverseString.sol\":352:359  len-i-1 */\n      tag_26\n      swap2\n      swap1\n      tag_25\n      jump\t// in\n    tag_26:\n        /* \"task1/reverseString.sol\":343:360  strBytes[len-i-1] */\n      dup2\n      mload\n      dup2\n      lt\n      tag_27\n      jumpi\n      tag_28\n      tag_23\n      jump\t// in\n    tag_28:\n    tag_27:\n      0x20\n      add\n      add\n      mload\n      0xf8\n      shr\n      0xf8\n      shl\n        /* \"task1/reverseString.sol\":329:337  strBytes */\n      dup5\n        /* \"task1/reverseString.sol\":338:339  i */\n      dup4\n        /* \"task1/reverseString.sol\":329:340  strBytes[i] */\n      dup2\n      mload\n      dup2\n      lt\n      tag_29\n      jumpi\n      tag_30\n      tag_23\n      jump\t// in\n    tag_30:\n    tag_29:\n      0x20\n      add\n      add\n        /* \"task1/reverseString.sol\":329:360  strBytes[i] = strBytes[len-i-1] */\n      swap1\n      not(0xffffffffffffffffffffffffffffffffffffffffffffffffffffffffffffff)\n      and\n      swap1\n      dup2\n      0x00\n      byte\n      swap1\n      mstore8\n      pop\n        /* \"task1/reverseString.sol\":395:398  tmp */\n      dup1\n        /* \"task1/reverseString.sol\":375:383  strBytes */\n      dup5\n        /* \"task1/reverseString.sol\":390:391  1 */\n      0x01\n        /* \"task1/reverseString.sol\":388:389  i */\n      dup5\n        /* \"task1/reverseString.sol\":384:387  len */\n      dup7\n        /* \"task1/reverseString.sol\":384:389  len-i */\n      tag_31\n      swap2\n      swap1\n      tag_25\n      jump\t// in\n    tag_31:\n        /* \"task1/reverseString.sol\":384:391  len-i-1 */\n      tag_32\n      swap2\n      swap1\n      tag_25\n      jump\t// in\n    tag_32:\n        /* \"task1/reverseString.sol\":375:392  strBytes[len-i-1] */\n      dup2\n      mload\n      dup2\n      lt\n      tag_33\n      jumpi\n      tag_34\n      tag_23\n      jump\t// in\n    tag_34:\n    tag_33:\n      0x20\n      add\n      add\n        /* \"task1/reverseString.sol\":375:398  strBytes[len-i-1] = tmp */\n      swap1\n      not(0xffffffffffffffffffffffffffffffffffffffffffffffffffffffffffffff)\n      and\n      swap1\n      dup2\n      0x00\n      byte\n      swap1\n      mstore8\n      pop\n        /* \"task1/reverseString.sol\":276:410  {... */\n      pop\n        /* \"task1/reverseString.sol\":272:275  i++ */\n      dup1\n      dup1\n      0x01\n      add\n      swap2\n      pop\n      pop\n        /* \"task1/reverseString.sol\":250:410  for (uint i=0;i<len/2;i++){... */\n      jump(tag_16)\n    tag_17:\n      pop\n        /* \"task1/reverseString.sol\":436:444  strBytes */\n      dup2\n        /* \"task1/reverseString.sol\":422:445  return string(strBytes) */\n      swap3\n      pop\n      pop\n      pop\n        /* \"task1/reverseString.sol\":89:453  function reverse(string memory s) public pure returns(string memory){... */\n      swap2\n      swap1\n      pop\n      jump\t// out\n        /* \"task1/reverseString.sol\":459:1851  function reverseZh(string memory str) public pure returns (string memory) {... */\n    tag_13:\n        /* \"task1/reverseString.sol\":518:531  string memory */\n      0x60\n        /* \"task1/reverseString.sol\":544:565  bytes memory strBytes */\n      0x00\n        /* \"task1/reverseString.sol\":574:577  str */\n      dup3\n        /* \"task1/reverseString.sol\":544:578  bytes memory strBytes = bytes(str) */\n      swap1\n      pop\n        /* \"task1/reverseString.sol\":589:609  bytes[] memory chars */\n      0x00\n        /* \"task1/reverseString.sol\":624:632  strBytes */\n      dup2\n        /* \"task1/reverseString.sol\":624:639  strBytes.length */\n      mload\n        /* \"task1/reverseString.sol\":612:640  new bytes[](strBytes.length) */\n      0xffffffffffffffff\n      dup2\n      gt\n      iszero\n      tag_36\n      jumpi\n      tag_37\n      tag_38\n      jump\t// in\n    tag_37:\n    tag_36:\n      mload(0x40)\n      swap1\n      dup1\n      dup3\n      mstore\n      dup1\n      0x20\n      mul\n      0x20\n      add\n      dup3\n      add\n      0x40\n      mstore\n      dup1\n      iszero\n      tag_39\n      jumpi\n      dup2\n      0x20\n      add\n    tag_40:\n      0x60\n      dup2\n      mstore\n      0x20\n      add\n      swap1\n      0x01\n      swap1\n      sub\n      swap1\n      dup2\n      tag_40\n      jumpi\n      swap1\n      pop\n    tag_39:\n      pop\n        /* \"task1/reverseString.sol\":589:640  bytes[] memory chars = new bytes[](strBytes.length) */\n      swap1\n      pop\n        /* \"task1/reverseString.sol\":691:701  uint count */\n      0x00\n        /* \"task1/reverseString.sol\":716:722  uint i */\n      dup1\n        /* \"task1/reverseString.sol\":739:1434  while (i < strBytes.length) {... */\n    tag_41:\n        /* \"task1/reverseString.sol\":750:758  strBytes */\n      dup4\n        /* \"task1/reverseString.sol\":750:765  strBytes.length */\n      mload\n        /* \"task1/reverseString.sol\":746:747  i */\n      dup2\n        /* \"task1/reverseString.sol\":746:765  i < strBytes.length */\n      lt\n        /* \"task1/reverseString.sol\":739:1434  while (i < strBytes.length) {... */\n      iszero\n      tag_42\n      jumpi\n        /* \"task1/reverseString.sol\":782:794  uint charLen */\n      0x00\n        /* \"task1/reverseString.sol\":797:798  1 */\n      0x01\n        /* \"task1/reverseString.sol\":782:798  uint charLen = 1 */\n      swap1\n      pop\n        /* \"task1/reverseString.sol\":813:820  uint8 b */\n      0x00\n        /* \"task1/reverseString.sol\":829:837  strBytes */\n      dup6\n        /* \"task1/reverseString.sol\":838:839  i */\n      dup4\n        /* \"task1/reverseString.sol\":829:840  strBytes[i] */\n      dup2\n      mload\n      dup2\n      lt\n      tag_43\n      jumpi\n      tag_44\n      tag_23\n      jump\t// in\n    tag_44:\n    tag_43:\n      0x20\n      add\n      add\n      mload\n      0xf8\n      shr\n      0xf8\n      shl\n        /* \"task1/reverseString.sol\":823:841  uint8(strBytes[i]) */\n      0xf8\n      shr\n        /* \"task1/reverseString.sol\":813:841  uint8 b = uint8(strBytes[i]) */\n      swap1\n      pop\n        /* \"task1/reverseString.sol\":867:871  0xF0 */\n      0xf0\n        /* \"task1/reverseString.sol\":862:863  b */\n      dup2\n        /* \"task1/reverseString.sol\":862:871  b >= 0xF0 */\n      0xff\n      and\n      lt\n        /* \"task1/reverseString.sol\":858:1136  if (b >= 0xF0) {... */\n      tag_45\n      jumpi\n        /* \"task1/reverseString.sol\":902:903  4 */\n      0x04\n        /* \"task1/reverseString.sol\":892:903  charLen = 4 */\n      swap2\n      pop\n        /* \"task1/reverseString.sol\":858:1136  if (b >= 0xF0) {... */\n      jump(tag_46)\n    tag_45:\n        /* \"task1/reverseString.sol\":963:967  0xE0 */\n      0xe0\n        /* \"task1/reverseString.sol\":958:959  b */\n      dup2\n        /* \"task1/reverseString.sol\":958:967  b >= 0xE0 */\n      0xff\n      and\n      lt\n        /* \"task1/reverseString.sol\":954:1136  if (b >= 0xE0) {... */\n      tag_47\n      jumpi\n        /* \"task1/reverseString.sol\":998:999  3 */\n      0x03\n        /* \"task1/reverseString.sol\":988:999  charLen = 3 */\n      swap2\n      pop\n        /* \"task1/reverseString.sol\":954:1136  if (b >= 0xE0) {... */\n      jump(tag_48)\n    tag_47:\n        /* \"task1/reverseString.sol\":1066:1070  0xC0 */\n      0xc0\n        /* \"task1/reverseString.sol\":1061:1062  b */\n      dup2\n        /* \"task1/reverseString.sol\":1061:1070  b >= 0xC0 */\n      0xff\n      and\n      lt\n        /* \"task1/reverseString.sol\":1057:1136  if (b >= 0xC0) {... */\n      tag_49\n      jumpi\n        /* \"task1/reverseString.sol\":1101:1102  2 */\n      0x02\n        /* \"task1/reverseString.sol\":1091:1102  charLen = 2 */\n      swap2\n      pop\n        /* \"task1/reverseString.sol\":1057:1136  if (b >= 0xC0) {... */\n    tag_49:\n        /* \"task1/reverseString.sol\":954:1136  if (b >= 0xE0) {... */\n    tag_48:\n        /* \"task1/reverseString.sol\":858:1136  if (b >= 0xF0) {... */\n    tag_46:\n        /* \"task1/reverseString.sol\":1175:1197  bytes memory charBytes */\n      0x00\n        /* \"task1/reverseString.sol\":1210:1217  charLen */\n      dup3\n        /* \"task1/reverseString.sol\":1200:1218  new bytes(charLen) */\n      0xffffffffffffffff\n      dup2\n      gt\n      iszero\n      tag_50\n      jumpi\n      tag_51\n      tag_38\n      jump\t// in\n    tag_51:\n    tag_50:\n      mload(0x40)\n      swap1\n      dup1\n      dup3\n      mstore\n      dup1\n      0x1f\n      add\n      not(0x1f)\n      and\n      0x20\n      add\n      dup3\n      add\n      0x40\n      mstore\n      dup1\n      iszero\n      tag_52\n      jumpi\n      dup2\n      0x20\n      add\n      0x01\n      dup3\n      mul\n      dup1\n      calldatasize\n      dup4\n      calldatacopy\n      dup1\n      dup3\n      add\n      swap2\n      pop\n      pop\n      swap1\n      pop\n    tag_52:\n      pop\n        /* \"task1/reverseString.sol\":1175:1218  bytes memory charBytes = new bytes(charLen) */\n      swap1\n      pop\n        /* \"task1/reverseString.sol\":1238:1244  uint j */\n      0x00\n        /* \"task1/reverseString.sol\":1233:1333  for (uint j = 0; j < charLen; j++) {... */\n    tag_53:\n        /* \"task1/reverseString.sol\":1254:1261  charLen */\n      dup4\n        /* \"task1/reverseString.sol\":1250:1251  j */\n      dup2\n        /* \"task1/reverseString.sol\":1250:1261  j < charLen */\n      lt\n        /* \"task1/reverseString.sol\":1233:1333  for (uint j = 0; j < charLen; j++) {... */\n      iszero\n      tag_54\n      jumpi\n        /* \"task1/reverseString.sol\":1302:1310  strBytes */\n      dup8\n        /* \"task1/reverseString.sol\":1315:1316  j */\n      dup2\n        /* \"task1/reverseString.sol\":1311:1312  i */\n      dup7\n        /* \"task1/reverseString.sol\":1311:1316  i + j */\n      tag_56\n      swap2\n      swap1\n      tag_57\n      jump\t// in\n    tag_56:\n        /* \"task1/reverseString.sol\":1302:1317  strBytes[i + j] */\n      dup2\n      mload\n      dup2\n      lt\n      tag_58\n      jumpi\n      tag_59\n      tag_23\n      jump\t// in\n    tag_59:\n    tag_58:\n      0x20\n      add\n      add\n      mload\n      0xf8\n      shr\n      0xf8\n      shl\n        /* \"task1/reverseString.sol\":1287:1296  charBytes */\n      dup3\n        /* \"task1/reverseString.sol\":1297:1298  j */\n      dup3\n        /* \"task1/reverseString.sol\":1287:1299  charBytes[j] */\n      dup2\n      mload\n      dup2\n      lt\n      tag_60\n      jumpi\n      tag_61\n      tag_23\n      jump\t// in\n    tag_61:\n    tag_60:\n      0x20\n      add\n      add\n        /* \"task1/reverseString.sol\":1287:1317  charBytes[j] = strBytes[i + j] */\n      swap1\n      not(0xffffffffffffffffffffffffffffffffffffffffffffffffffffffffffffff)\n      and\n      swap1\n      dup2\n      0x00\n      byte\n      swap1\n      mstore8\n      pop\n        /* \"task1/reverseString.sol\":1263:1266  j++ */\n      dup1\n      dup1\n      0x01\n      add\n      swap2\n      pop\n      pop\n        /* \"task1/reverseString.sol\":1233:1333  for (uint j = 0; j < charLen; j++) {... */\n      jump(tag_53)\n    tag_54:\n      pop\n        /* \"task1/reverseString.sol\":1364:1373  charBytes */\n      dup1\n        /* \"task1/reverseString.sol\":1349:1354  chars */\n      dup7\n        /* \"task1/reverseString.sol\":1355:1360  count */\n      dup7\n        /* \"task1/reverseString.sol\":1349:1361  chars[count] */\n      dup2\n      mload\n      dup2\n      lt\n      tag_62\n      jumpi\n      tag_63\n      tag_23\n      jump\t// in\n    tag_63:\n    tag_62:\n      0x20\n      mul\n      0x20\n      add\n      add\n        /* \"task1/reverseString.sol\":1349:1373  chars[count] = charBytes */\n      dup2\n      swap1\n      mstore\n      pop\n        /* \"task1/reverseString.sol\":1388:1395  count++ */\n      dup5\n      dup1\n      tag_64\n      swap1\n      tag_65\n      jump\t// in\n    tag_64:\n      swap6\n      pop\n      pop\n        /* \"task1/reverseString.sol\":1415:1422  charLen */\n      dup3\n        /* \"task1/reverseString.sol\":1410:1422  i += charLen */\n      dup5\n      tag_66\n      swap2\n      swap1\n      tag_57\n      jump\t// in\n    tag_66:\n      swap4\n      pop\n        /* \"task1/reverseString.sol\":767:1434  {... */\n      pop\n      pop\n      pop\n        /* \"task1/reverseString.sol\":739:1434  while (i < strBytes.length) {... */\n      jump(tag_41)\n    tag_42:\n        /* \"task1/reverseString.sol\":1477:1498  bytes memory reversed */\n      0x00\n        /* \"task1/reverseString.sol\":1511:1519  strBytes */\n      dup5\n        /* \"task1/reverseString.sol\":1511:1526  strBytes.length */\n      mload\n        /* \"task1/reverseString.sol\":1501:1527  new bytes(strBytes.length) */\n      0xffffffffffffffff\n      dup2\n      gt\n      iszero\n      tag_67\n      jumpi\n      tag_68\n      tag_38\n      jump\t// in\n    tag_68:\n    tag_67:\n      mload(0x40)\n      swap1\n      dup1\n      dup3\n      mstore\n      dup1\n      0x1f\n      add\n      not(0x1f)\n      and\n      0x20\n      add\n      dup3\n      add\n      0x40\n      mstore\n      dup1\n      iszero\n      tag_69\n      jumpi\n      dup2\n      0x20\n      add\n      0x01\n      dup3\n      mul\n      dup1\n      calldatasize\n      dup4\n      calldatacopy\n      dup1\n      dup3\n      add\n      swap2\n      pop\n      pop\n      swap1\n      pop\n    tag_69:\n      pop\n        /* \"task1/reverseString.sol\":1477:1527  bytes memory reversed = new bytes(strBytes.length) */\n      swap1\n      pop\n        /* \"task1/reverseString.sol\":1538:1544  uint k */\n      0x00\n        /* \"task1/reverseString.sol\":1564:1569  int m */\n      dup1\n        /* \"task1/reverseString.sol\":1585:1586  1 */\n      0x01\n        /* \"task1/reverseString.sol\":1576:1581  count */\n      dup6\n        /* \"task1/reverseString.sol\":1572:1586  int(count) - 1 */\n      tag_73\n      swap2\n      swap1\n      tag_74\n      jump\t// in\n    tag_73:\n        /* \"task1/reverseString.sol\":1564:1586  int m = int(count) - 1 */\n      swap1\n      pop\n        /* \"task1/reverseString.sol\":1559:1808  for (int m = int(count) - 1; m >= 0; m--) {... */\n    tag_70:\n        /* \"task1/reverseString.sol\":1593:1594  0 */\n      0x00\n        /* \"task1/reverseString.sol\":1588:1589  m */\n      dup2\n        /* \"task1/reverseString.sol\":1588:1594  m >= 0 */\n      slt\n        /* \"task1/reverseString.sol\":1559:1808  for (int m = int(count) - 1; m >= 0; m--) {... */\n      tag_71\n      jumpi\n        /* \"task1/reverseString.sol\":1616:1638  bytes memory charBytes */\n      0x00\n        /* \"task1/reverseString.sol\":1641:1646  chars */\n      dup7\n        /* \"task1/reverseString.sol\":1652:1653  m */\n      dup3\n        /* \"task1/reverseString.sol\":1641:1655  chars[uint(m)] */\n      dup2\n      mload\n      dup2\n      lt\n      tag_75\n      jumpi\n      tag_76\n      tag_23\n      jump\t// in\n    tag_76:\n    tag_75:\n      0x20\n      mul\n      0x20\n      add\n      add\n      mload\n        /* \"task1/reverseString.sol\":1616:1655  bytes memory charBytes = chars[uint(m)] */\n      swap1\n      pop\n        /* \"task1/reverseString.sol\":1675:1681  uint n */\n      0x00\n        /* \"task1/reverseString.sol\":1670:1797  for (uint n = 0; n < charBytes.length; n++) {... */\n    tag_77:\n        /* \"task1/reverseString.sol\":1691:1700  charBytes */\n      dup2\n        /* \"task1/reverseString.sol\":1691:1707  charBytes.length */\n      mload\n        /* \"task1/reverseString.sol\":1687:1688  n */\n      dup2\n        /* \"task1/reverseString.sol\":1687:1707  n < charBytes.length */\n      lt\n        /* \"task1/reverseString.sol\":1670:1797  for (uint n = 0; n < charBytes.length; n++) {... */\n      iszero\n      tag_78\n      jumpi\n        /* \"task1/reverseString.sol\":1747:1756  charBytes */\n      dup2\n        /* \"task1/reverseString.sol\":1757:1758  n */\n      dup2\n        /* \"task1/reverseString.sol\":1747:1759  charBytes[n] */\n      dup2\n      mload\n      dup2\n      lt\n      tag_80\n      jumpi\n      tag_81\n      tag_23\n      jump\t// in\n    tag_81:\n    tag_80:\n      0x20\n      add\n      add\n      mload\n      0xf8\n      shr\n      0xf8\n      shl\n        /* \"task1/reverseString.sol\":1733:1741  reversed */\n      dup6\n        /* \"task1/reverseString.sol\":1742:1743  k */\n      dup6\n        /* \"task1/reverseString.sol\":1733:1744  reversed[k] */\n      dup2\n      mload\n      dup2\n      lt\n      tag_82\n      jumpi\n      tag_83\n      tag_23\n      jump\t// in\n    tag_83:\n    tag_82:\n      0x20\n      add\n      add\n        /* \"task1/reverseString.sol\":1733:1759  reversed[k] = charBytes[n] */\n      swap1\n      not(0xffffffffffffffffffffffffffffffffffffffffffffffffffffffffffffff)\n      and\n      swap1\n      dup2\n      0x00\n      byte\n      swap1\n      mstore8\n      pop\n        /* \"task1/reverseString.sol\":1778:1781  k++ */\n      dup4\n      dup1\n      tag_84\n      swap1\n      tag_65\n      jump\t// in\n    tag_84:\n      swap5\n      pop\n      pop\n        /* \"task1/reverseString.sol\":1709:1712  n++ */\n      dup1\n      dup1\n      0x01\n      add\n      swap2\n      pop\n      pop\n        /* \"task1/reverseString.sol\":1670:1797  for (uint n = 0; n < charBytes.length; n++) {... */\n      jump(tag_77)\n    tag_78:\n      pop\n        /* \"task1/reverseString.sol\":1601:1808  {... */\n      pop\n        /* \"task1/reverseString.sol\":1596:1599  m-- */\n      dup1\n      dup1\n      tag_85\n      swap1\n      tag_86\n      jump\t// in\n    tag_85:\n      swap2\n      pop\n      pop\n        /* \"task1/reverseString.sol\":1559:1808  for (int m = int(count) - 1; m >= 0; m--) {... */\n      jump(tag_70)\n    tag_71:\n      pop\n        /* \"task1/reverseString.sol\":1834:1842  reversed */\n      dup2\n        /* \"task1/reverseString.sol\":1820:1843  return string(reversed) */\n      swap7\n      pop\n      pop\n      pop\n      pop\n      pop\n      pop\n      pop\n        /* \"task1/reverseString.sol\":459:1851  function reverseZh(string memory str) public pure returns (string memory) {... */\n      swap2\n      swap1\n      pop\n      jump\t// out\n        /* \"#utility.yul\":7:82   */\n    tag_87:\n        /* \"#utility.yul\":40:46   */\n      0x00\n        /* \"#utility.yul\":73:75   */\n      0x40\n        /* \"#utility.yul\":67:76   */\n      mload\n        /* \"#utility.yul\":57:76   */\n      swap1\n      pop\n        /* \"#utility.yul\":7:82   */\n      swap1\n      jump\t// out\n        /* \"#utility.yul\":88:205   */\n    tag_88:\n        /* \"#utility.yul\":197:198   */\n      0x00\n        /* \"#utility.yul\":194:195   */\n      dup1\n        /* \"#utility.yul\":187:199   */\n      revert\n        /* \"#utility.yul\":211:328   */\n    tag_89:\n        /* \"#utility.yul\":320:321   */\n      0x00\n        /* \"#utility.yul\":317:318   */\n      dup1\n        /* \"#utility.yul\":310:322   */\n      revert\n        /* \"#utility.yul\":334:451   */\n    tag_90:\n        /* \"#utility.yul\":443:444   */\n      0x00\n        /* \"#utility.yul\":440:441   */\n      dup1\n        /* \"#utility.yul\":433:445   */\n      revert\n        /* \"#utility.yul\":457:574   */\n    tag_91:\n        /* \"#utility.yul\":566:567   */\n      0x00\n        /* \"#utility.yul\":563:564   */\n      dup1\n        /* \"#utility.yul\":556:568   */\n      revert\n        /* \"#utility.yul\":580:682   */\n    tag_92:\n        /* \"#utility.yul\":621:627   */\n      0x00\n        /* \"#utility.yul\":672:674   */\n      0x1f\n        /* \"#utility.yul\":668:675   */\n      not\n        /* \"#utility.yul\":663:665   */\n      0x1f\n        /* \"#utility.yul\":656:661   */\n      dup4\n        /* \"#utility.yul\":652:666   */\n      add\n        /* \"#utility.yul\":648:676   */\n      and\n        /* \"#utility.yul\":638:676   */\n      swap1\n      pop\n        /* \"#utility.yul\":580:682   */\n      swap2\n      swap1\n      pop\n      jump\t// out\n        /* \"#utility.yul\":688:868   */\n    tag_38:\n        /* \"#utility.yul\":736:813   */\n      0x4e487b7100000000000000000000000000000000000000000000000000000000\n        /* \"#utility.yul\":733:734   */\n      0x00\n        /* \"#utility.yul\":726:814   */\n      mstore\n        /* \"#utility.yul\":833:837   */\n      0x41\n        /* \"#utility.yul\":830:831   */\n      0x04\n        /* \"#utility.yul\":823:838   */\n      mstore\n        /* \"#utility.yul\":857:861   */\n      0x24\n        /* \"#utility.yul\":854:855   */\n      0x00\n        /* \"#utility.yul\":847:862   */\n      revert\n        /* \"#utility.yul\":874:1155   */\n    tag_93:\n        /* \"#utility.yul\":957:984   */\n      tag_116\n        /* \"#utility.yul\":979:983   */\n      dup3\n        /* \"#utility.yul\":957:984   */\n      tag_92\n      jump\t// in\n    tag_116:\n        /* \"#utility.yul\":949:955   */\n      dup2\n        /* \"#utility.yul\":945:985   */\n      add\n        /* \"#utility.yul\":1087:1093   */\n      dup2\n        /* \"#utility.yul\":1075:1085   */\n      dup2\n        /* \"#utility.yul\":1072:1094   */\n      lt\n        /* \"#utility.yul\":1051:1069   */\n      0xffffffffffffffff\n        /* \"#utility.yul\":1039:1049   */\n      dup3\n        /* \"#utility.yul\":1036:1070   */\n      gt\n        /* \"#utility.yul\":1033:1095   */\n      or\n        /* \"#utility.yul\":1030:1118   */\n      iszero\n      tag_117\n      jumpi\n        /* \"#utility.yul\":1098:1116   */\n      tag_118\n      tag_38\n      jump\t// in\n    tag_118:\n        /* \"#utility.yul\":1030:1118   */\n    tag_117:\n        /* \"#utility.yul\":1138:1148   */\n      dup1\n        /* \"#utility.yul\":1134:1136   */\n      0x40\n        /* \"#utility.yul\":1127:1149   */\n      mstore\n        /* \"#utility.yul\":917:1155   */\n      pop\n        /* \"#utility.yul\":874:1155   */\n      pop\n      pop\n      jump\t// out\n        /* \"#utility.yul\":1161:1290   */\n    tag_94:\n        /* \"#utility.yul\":1195:1201   */\n      0x00\n        /* \"#utility.yul\":1222:1242   */\n      tag_120\n      tag_87\n      jump\t// in\n    tag_120:\n        /* \"#utility.yul\":1212:1242   */\n      swap1\n      pop\n        /* \"#utility.yul\":1251:1284   */\n      tag_121\n        /* \"#utility.yul\":1279:1283   */\n      dup3\n        /* \"#utility.yul\":1271:1277   */\n      dup3\n        /* \"#utility.yul\":1251:1284   */\n      tag_93\n      jump\t// in\n    tag_121:\n        /* \"#utility.yul\":1161:1290   */\n      swap2\n      swap1\n      pop\n      jump\t// out\n        /* \"#utility.yul\":1296:1604   */\n    tag_95:\n        /* \"#utility.yul\":1358:1362   */\n      0x00\n        /* \"#utility.yul\":1448:1466   */\n      0xffffffffffffffff\n        /* \"#utility.yul\":1440:1446   */\n      dup3\n        /* \"#utility.yul\":1437:1467   */\n      gt\n        /* \"#utility.yul\":1434:1490   */\n      iszero\n      tag_123\n      jumpi\n        /* \"#utility.yul\":1470:1488   */\n      tag_124\n      tag_38\n      jump\t// in\n    tag_124:\n        /* \"#utility.yul\":1434:1490   */\n    tag_123:\n        /* \"#utility.yul\":1508:1537   */\n      tag_125\n        /* \"#utility.yul\":1530:1536   */\n      dup3\n        /* \"#utility.yul\":1508:1537   */\n      tag_92\n      jump\t// in\n    tag_125:\n        /* \"#utility.yul\":1500:1537   */\n      swap1\n      pop\n        /* \"#utility.yul\":1592:1596   */\n      0x20\n        /* \"#utility.yul\":1586:1590   */\n      dup2\n        /* \"#utility.yul\":1582:1597   */\n      add\n        /* \"#utility.yul\":1574:1597   */\n      swap1\n      pop\n        /* \"#utility.yul\":1296:1604   */\n      swap2\n      swap1\n      pop\n      jump\t// out\n        /* \"#utility.yul\":1610:1758   */\n    tag_96:\n        /* \"#utility.yul\":1708:1714   */\n      dup3\n        /* \"#utility.yul\":1703:1706   */\n      dup2\n        /* \"#utility.yul\":1698:1701   */\n      dup4\n        /* \"#utility.yul\":1685:1715   */\n      calldatacopy\n        /* \"#utility.yul\":1749:1750   */\n      0x00\n        /* \"#utility.yul\":1740:1746   */\n      dup4\n        /* \"#utility.yul\":1735:1738   */\n      dup4\n        /* \"#utility.yul\":1731:1747   */\n      add\n        /* \"#utility.yul\":1724:1751   */\n      mstore\n        /* \"#utility.yul\":1610:1758   */\n      pop\n      pop\n      pop\n      jump\t// out\n        /* \"#utility.yul\":1764:2189   */\n    tag_97:\n        /* \"#utility.yul\":1842:1847   */\n      0x00\n        /* \"#utility.yul\":1867:1933   */\n      tag_128\n        /* \"#utility.yul\":1883:1932   */\n      tag_129\n        /* \"#utility.yul\":1925:1931   */\n      dup5\n        /* \"#utility.yul\":1883:1932   */\n      tag_95\n      jump\t// in\n    tag_129:\n        /* \"#utility.yul\":1867:1933   */\n      tag_94\n      jump\t// in\n    tag_128:\n        /* \"#utility.yul\":1858:1933   */\n      swap1\n      pop\n        /* \"#utility.yul\":1956:1962   */\n      dup3\n        /* \"#utility.yul\":1949:1954   */\n      dup2\n        /* \"#utility.yul\":1942:1963   */\n      mstore\n        /* \"#utility.yul\":1994:1998   */\n      0x20\n        /* \"#utility.yul\":1987:1992   */\n      dup2\n        /* \"#utility.yul\":1983:1999   */\n      add\n        /* \"#utility.yul\":2032:2035   */\n      dup5\n        /* \"#utility.yul\":2023:2029   */\n      dup5\n        /* \"#utility.yul\":2018:2021   */\n      dup5\n        /* \"#utility.yul\":2014:2030   */\n      add\n        /* \"#utility.yul\":2011:2036   */\n      gt\n        /* \"#utility.yul\":2008:2120   */\n      iszero\n      tag_130\n      jumpi\n        /* \"#utility.yul\":2039:2118   */\n      tag_131\n      tag_91\n      jump\t// in\n    tag_131:\n        /* \"#utility.yul\":2008:2120   */\n    tag_130:\n        /* \"#utility.yul\":2129:2183   */\n      tag_132\n        /* \"#utility.yul\":2176:2182   */\n      dup5\n        /* \"#utility.yul\":2171:2174   */\n      dup3\n        /* \"#utility.yul\":2166:2169   */\n      dup6\n        /* \"#utility.yul\":2129:2183   */\n      tag_96\n      jump\t// in\n    tag_132:\n        /* \"#utility.yul\":1848:2189   */\n      pop\n        /* \"#utility.yul\":1764:2189   */\n      swap4\n      swap3\n      pop\n      pop\n      pop\n      jump\t// out\n        /* \"#utility.yul\":2209:2549   */\n    tag_98:\n        /* \"#utility.yul\":2265:2270   */\n      0x00\n        /* \"#utility.yul\":2314:2317   */\n      dup3\n        /* \"#utility.yul\":2307:2311   */\n      0x1f\n        /* \"#utility.yul\":2299:2305   */\n      dup4\n        /* \"#utility.yul\":2295:2312   */\n      add\n        /* \"#utility.yul\":2291:2318   */\n      slt\n        /* \"#utility.yul\":2281:2403   */\n      tag_134\n      jumpi\n        /* \"#utility.yul\":2322:2401   */\n      tag_135\n      tag_90\n      jump\t// in\n    tag_135:\n        /* \"#utility.yul\":2281:2403   */\n    tag_134:\n        /* \"#utility.yul\":2439:2445   */\n      dup2\n        /* \"#utility.yul\":2426:2446   */\n      calldataload\n        /* \"#utility.yul\":2464:2543   */\n      tag_136\n        /* \"#utility.yul\":2539:2542   */\n      dup5\n        /* \"#utility.yul\":2531:2537   */\n      dup3\n        /* \"#utility.yul\":2524:2528   */\n      0x20\n        /* \"#utility.yul\":2516:2522   */\n      dup7\n        /* \"#utility.yul\":2512:2529   */\n      add\n        /* \"#utility.yul\":2464:2543   */\n      tag_97\n      jump\t// in\n    tag_136:\n        /* \"#utility.yul\":2455:2543   */\n      swap2\n      pop\n        /* \"#utility.yul\":2271:2549   */\n      pop\n        /* \"#utility.yul\":2209:2549   */\n      swap3\n      swap2\n      pop\n      pop\n      jump\t// out\n        /* \"#utility.yul\":2555:3064   */\n    tag_7:\n        /* \"#utility.yul\":2624:2630   */\n      0x00\n        /* \"#utility.yul\":2673:2675   */\n      0x20\n        /* \"#utility.yul\":2661:2670   */\n      dup3\n        /* \"#utility.yul\":2652:2659   */\n      dup5\n        /* \"#utility.yul\":2648:2671   */\n      sub\n        /* \"#utility.yul\":2644:2676   */\n      slt\n        /* \"#utility.yul\":2641:2760   */\n      iszero\n      tag_138\n      jumpi\n        /* \"#utility.yul\":2679:2758   */\n      tag_139\n      tag_88\n      jump\t// in\n    tag_139:\n        /* \"#utility.yul\":2641:2760   */\n    tag_138:\n        /* \"#utility.yul\":2827:2828   */\n      0x00\n        /* \"#utility.yul\":2816:2825   */\n      dup3\n        /* \"#utility.yul\":2812:2829   */\n      add\n        /* \"#utility.yul\":2799:2830   */\n      calldataload\n        /* \"#utility.yul\":2857:2875   */\n      0xffffffffffffffff\n        /* \"#utility.yul\":2849:2855   */\n      dup2\n        /* \"#utility.yul\":2846:2876   */\n      gt\n        /* \"#utility.yul\":2843:2960   */\n      iszero\n      tag_140\n      jumpi\n        /* \"#utility.yul\":2879:2958   */\n      tag_141\n      tag_89\n      jump\t// in\n    tag_141:\n        /* \"#utility.yul\":2843:2960   */\n    tag_140:\n        /* \"#utility.yul\":2984:3047   */\n      tag_142\n        /* \"#utility.yul\":3039:3046   */\n      dup5\n        /* \"#utility.yul\":3030:3036   */\n      dup3\n        /* \"#utility.yul\":3019:3028   */\n      dup6\n        /* \"#utility.yul\":3015:3037   */\n      add\n        /* \"#utility.yul\":2984:3047   */\n      tag_98\n      jump\t// in\n    tag_142:\n        /* \"#utility.yul\":2974:3047   */\n      swap2\n      pop\n        /* \"#utility.yul\":2770:3057   */\n      pop\n        /* \"#utility.yul\":2555:3064   */\n      swap3\n      swap2\n      pop\n      pop\n      jump\t// out\n        /* \"#utility.yul\":3070:3169   */\n    tag_99:\n        /* \"#utility.yul\":3122:3128   */\n      0x00\n        /* \"#utility.yul\":3156:3161   */\n      dup2\n        /* \"#utility.yul\":3150:3162   */\n      mload\n        /* \"#utility.yul\":3140:3162   */\n      swap1\n      pop\n        /* \"#utility.yul\":3070:3169   */\n      swap2\n      swap1\n      pop\n      jump\t// out\n        /* \"#utility.yul\":3175:3344   */\n    tag_100:\n        /* \"#utility.yul\":3259:3270   */\n      0x00\n        /* \"#utility.yul\":3293:3299   */\n      dup3\n        /* \"#utility.yul\":3288:3291   */\n      dup3\n        /* \"#utility.yul\":3281:3300   */\n      mstore\n        /* \"#utility.yul\":3333:3337   */\n      0x20\n        /* \"#utility.yul\":3328:3331   */\n      dup3\n        /* \"#utility.yul\":3324:3338   */\n      add\n        /* \"#utility.yul\":3309:3338   */\n      swap1\n      pop\n        /* \"#utility.yul\":3175:3344   */\n      swap3\n      swap2\n      pop\n      pop\n      jump\t// out\n        /* \"#utility.yul\":3350:3489   */\n    tag_101:\n        /* \"#utility.yul\":3439:3445   */\n      dup3\n        /* \"#utility.yul\":3434:3437   */\n      dup2\n        /* \"#utility.yul\":3429:3432   */\n      dup4\n        /* \"#utility.yul\":3423:3446   */\n      mcopy\n        /* \"#utility.yul\":3480:3481   */\n      0x00\n        /* \"#utility.yul\":3471:3477   */\n      dup4\n        /* \"#utility.yul\":3466:3469   */\n      dup4\n        /* \"#utility.yul\":3462:3478   */\n      add\n        /* \"#utility.yul\":3455:3482   */\n      mstore\n        /* \"#utility.yul\":3350:3489   */\n      pop\n      pop\n      pop\n      jump\t// out\n        /* \"#utility.yul\":3495:3872   */\n    tag_102:\n        /* \"#utility.yul\":3583:3586   */\n      0x00\n        /* \"#utility.yul\":3611:3650   */\n      tag_147\n        /* \"#utility.yul\":3644:3649   */\n      dup3\n        /* \"#utility.yul\":3611:3650   */\n      tag_99\n      jump\t// in\n    tag_147:\n        /* \"#utility.yul\":3666:3737   */\n      tag_148\n        /* \"#utility.yul\":3730:3736   */\n      dup2\n        /* \"#utility.yul\":3725:3728   */\n      dup6\n        /* \"#utility.yul\":3666:3737   */\n      tag_100\n      jump\t// in\n    tag_148:\n        /* \"#utility.yul\":3659:3737   */\n      swap4\n      pop\n        /* \"#utility.yul\":3746:3811   */\n      tag_149\n        /* \"#utility.yul\":3804:3810   */\n      dup2\n        /* \"#utility.yul\":3799:3802   */\n      dup6\n        /* \"#utility.yul\":3792:3796   */\n      0x20\n        /* \"#utility.yul\":3785:3790   */\n      dup7\n        /* \"#utility.yul\":3781:3797   */\n      add\n        /* \"#utility.yul\":3746:3811   */\n      tag_101\n      jump\t// in\n    tag_149:\n        /* \"#utility.yul\":3836:3865   */\n      tag_150\n        /* \"#utility.yul\":3858:3864   */\n      dup2\n        /* \"#utility.yul\":3836:3865   */\n      tag_92\n      jump\t// in\n    tag_150:\n        /* \"#utility.yul\":3831:3834   */\n      dup5\n        /* \"#utility.yul\":3827:3866   */\n      add\n        /* \"#utility.yul\":3820:3866   */\n      swap2\n      pop\n        /* \"#utility.yul\":3587:3872   */\n      pop\n        /* \"#utility.yul\":3495:3872   */\n      swap3\n      swap2\n      pop\n      pop\n      jump\t// out\n        /* \"#utility.yul\":3878:4191   */\n    tag_10:\n        /* \"#utility.yul\":3991:3995   */\n      0x00\n        /* \"#utility.yul\":4029:4031   */\n      0x20\n        /* \"#utility.yul\":4018:4027   */\n      dup3\n        /* \"#utility.yul\":4014:4032   */\n      add\n        /* \"#utility.yul\":4006:4032   */\n      swap1\n      pop\n        /* \"#utility.yul\":4078:4087   */\n      dup2\n        /* \"#utility.yul\":4072:4076   */\n      dup2\n        /* \"#utility.yul\":4068:4088   */\n      sub\n        /* \"#utility.yul\":4064:4065   */\n      0x00\n        /* \"#utility.yul\":4053:4062   */\n      dup4\n        /* \"#utility.yul\":4049:4066   */\n      add\n        /* \"#utility.yul\":4042:4089   */\n      mstore\n        /* \"#utility.yul\":4106:4184   */\n      tag_152\n        /* \"#utility.yul\":4179:4183   */\n      dup2\n        /* \"#utility.yul\":4170:4176   */\n      dup5\n        /* \"#utility.yul\":4106:4184   */\n      tag_102\n      jump\t// in\n    tag_152:\n        /* \"#utility.yul\":4098:4184   */\n      swap1\n      pop\n        /* \"#utility.yul\":3878:4191   */\n      swap3\n      swap2\n      pop\n      pop\n      jump\t// out\n        /* \"#utility.yul\":4197:4274   */\n    tag_103:\n        /* \"#utility.yul\":4234:4241   */\n      0x00\n        /* \"#utility.yul\":4263:4268   */\n      dup2\n        /* \"#utility.yul\":4252:4268   */\n      swap1\n      pop\n        /* \"#utility.yul\":4197:4274   */\n      swap2\n      swap1\n      pop\n      jump\t// out\n        /* \"#utility.yul\":4280:4460   */\n    tag_104:\n        /* \"#utility.yul\":4328:4405   */\n      0x4e487b7100000000000000000000000000000000000000000000000000000000\n        /* \"#utility.yul\":4325:4326   */\n      0x00\n        /* \"#utility.yul\":4318:4406   */\n      mstore\n        /* \"#utility.yul\":4425:4429   */\n      0x12\n        /* \"#utility.yul\":4422:4423   */\n      0x04\n        /* \"#utility.yul\":4415:4430   */\n      mstore\n        /* \"#utility.yul\":4449:4453   */\n      0x24\n        /* \"#utility.yul\":4446:4447   */\n      0x00\n        /* \"#utility.yul\":4439:4454   */\n      revert\n        /* \"#utility.yul\":4466:4646   */\n    tag_105:\n        /* \"#utility.yul\":4514:4591   */\n      0x4e487b7100000000000000000000000000000000000000000000000000000000\n        /* \"#utility.yul\":4511:4512   */\n      0x00\n        /* \"#utility.yul\":4504:4592   */\n      mstore\n        /* \"#utility.yul\":4611:4615   */\n      0x11\n        /* \"#utility.yul\":4608:4609   */\n      0x04\n        /* \"#utility.yul\":4601:4616   */\n      mstore\n        /* \"#utility.yul\":4635:4639   */\n      0x24\n        /* \"#utility.yul\":4632:4633   */\n      0x00\n        /* \"#utility.yul\":4625:4640   */\n      revert\n        /* \"#utility.yul\":4652:4837   */\n    tag_20:\n        /* \"#utility.yul\":4692:4693   */\n      0x00\n        /* \"#utility.yul\":4709:4729   */\n      tag_157\n        /* \"#utility.yul\":4727:4728   */\n      dup3\n        /* \"#utility.yul\":4709:4729   */\n      tag_103\n      jump\t// in\n    tag_157:\n        /* \"#utility.yul\":4704:4729   */\n      swap2\n      pop\n        /* \"#utility.yul\":4743:4763   */\n      tag_158\n        /* \"#utility.yul\":4761:4762   */\n      dup4\n        /* \"#utility.yul\":4743:4763   */\n      tag_103\n      jump\t// in\n    tag_158:\n        /* \"#utility.yul\":4738:4763   */\n      swap3\n      pop\n        /* \"#utility.yul\":4782:4783   */\n      dup3\n        /* \"#utility.yul\":4772:4807   */\n      tag_159\n      jumpi\n        /* \"#utility.yul\":4787:4805   */\n      tag_160\n      tag_104\n      jump\t// in\n    tag_160:\n        /* \"#utility.yul\":4772:4807   */\n    tag_159:\n        /* \"#utility.yul\":4829:4830   */\n      dup3\n        /* \"#utility.yul\":4826:4827   */\n      dup3\n        /* \"#utility.yul\":4822:4831   */\n      div\n        /* \"#utility.yul\":4817:4831   */\n      swap1\n      pop\n        /* \"#utility.yul\":4652:4837   */\n      swap3\n      swap2\n      pop\n      pop\n      jump\t// out\n        /* \"#utility.yul\":4843:5023   */\n    tag_23:\n        /* \"#utility.yul\":4891:4968   */\n      0x4e487b7100000000000000000000000000000000000000000000000000000000\n        /* \"#utility.yul\":4888:4889   */\n      0x00\n        /* \"#utility.yul\":4881:4969   */\n      mstore\n        /* \"#utility.yul\":4988:4992   */\n      0x32\n        /* \"#utility.yul\":4985:4986   */\n      0x04\n        /* \"#utility.yul\":4978:4993   */\n      mstore\n        /* \"#utility.yul\":5012:5016   */\n      0x24\n        /* \"#utility.yul\":5009:5010   */\n      0x00\n        /* \"#utility.yul\":5002:5017   */\n      revert\n        /* \"#utility.yul\":5029:5223   */\n    tag_25:\n        /* \"#utility.yul\":5069:5073   */\n      0x00\n        /* \"#utility.yul\":5089:5109   */\n      tag_163\n        /* \"#utility.yul\":5107:5108   */\n      dup3\n        /* \"#utility.yul\":5089:5109   */\n      tag_103\n      jump\t// in\n    tag_163:\n        /* \"#utility.yul\":5084:5109   */\n      swap2\n      pop\n        /* \"#utility.yul\":5123:5143   */\n      tag_164\n        /* \"#utility.yul\":5141:5142   */\n      dup4\n        /* \"#utility.yul\":5123:5143   */\n      tag_103\n      jump\t// in\n    tag_164:\n        /* \"#utility.yul\":5118:5143   */\n      swap3\n      pop\n        /* \"#utility.yul\":5167:5168   */\n      dup3\n        /* \"#utility.yul\":5164:5165   */\n      dup3\n        /* \"#utility.yul\":5160:5169   */\n      sub\n        /* \"#utility.yul\":5152:5169   */\n      swap1\n      pop\n        /* \"#utility.yul\":5191:5192   */\n      dup2\n        /* \"#utility.yul\":5185:5189   */\n      dup2\n        /* \"#utility.yul\":5182:5193   */\n      gt\n        /* \"#utility.yul\":5179:5216   */\n      iszero\n      tag_165\n      jumpi\n        /* \"#utility.yul\":5196:5214   */\n      tag_166\n      tag_105\n      jump\t// in\n    tag_166:\n        /* \"#utility.yul\":5179:5216   */\n    tag_165:\n        /* \"#utility.yul\":5029:5223   */\n      swap3\n      swap2\n      pop\n      pop\n      jump\t// out\n        /* \"#utility.yul\":5229:5420   */\n    tag_57:\n        /* \"#utility.yul\":5269:5272   */\n      0x00\n        /* \"#utility.yul\":5288:5308   */\n      tag_168\n        /* \"#utility.yul\":5306:5307   */\n      dup3\n        /* \"#utility.yul\":5288:5308   */\n      tag_103\n      jump\t// in\n    tag_168:\n        /* \"#utility.yul\":5283:5308   */\n      swap2\n      pop\n        /* \"#utility.yul\":5322:5342   */\n      tag_169\n        /* \"#utility.yul\":5340:5341   */\n      dup4\n        /* \"#utility.yul\":5322:5342   */\n      tag_103\n      jump\t// in\n    tag_169:\n        /* \"#utility.yul\":5317:5342   */\n      swap3\n      pop\n        /* \"#utility.yul\":5365:5366   */\n      dup3\n        /* \"#utility.yul\":5362:5363   */\n      dup3\n        /* \"#utility.yul\":5358:5367   */\n      add\n        /* \"#utility.yul\":5351:5367   */\n      swap1\n      pop\n        /* \"#utility.yul\":5386:5389   */\n      dup1\n        /* \"#utility.yul\":5383:5384   */\n      dup3\n        /* \"#utility.yul\":5380:5390   */\n      gt\n        /* \"#utility.yul\":5377:5413   */\n      iszero\n      tag_170\n      jumpi\n        /* \"#utility.yul\":5393:5411   */\n      tag_171\n      tag_105\n      jump\t// in\n    tag_171:\n        /* \"#utility.yul\":5377:5413   */\n    tag_170:\n        /* \"#utility.yul\":5229:5420   */\n      swap3\n      swap2\n      pop\n      pop\n      jump\t// out\n        /* \"#utility.yul\":5426:5659   */\n    tag_65:\n        /* \"#utility.yul\":5465:5468   */\n      0x00\n        /* \"#utility.yul\":5488:5512   */\n      tag_173\n        /* \"#utility.yul\":5506:5511   */\n      dup3\n        /* \"#utility.yul\":5488:5512   */\n      tag_103\n      jump\t// in\n    tag_173:\n        /* \"#utility.yul\":5479:5512   */\n      swap2\n      pop\n        /* \"#utility.yul\":5534:5600   */\n      0xffffffffffffffffffffffffffffffffffffffffffffffffffffffffffffffff\n        /* \"#utility.yul\":5527:5532   */\n      dup3\n        /* \"#utility.yul\":5524:5601   */\n      sub\n        /* \"#utility.yul\":5521:5624   */\n      tag_174\n      jumpi\n        /* \"#utility.yul\":5604:5622   */\n      tag_175\n      tag_105\n      jump\t// in\n    tag_175:\n        /* \"#utility.yul\":5521:5624   */\n    tag_174:\n        /* \"#utility.yul\":5651:5652   */\n      0x01\n        /* \"#utility.yul\":5644:5649   */\n      dup3\n        /* \"#utility.yul\":5640:5653   */\n      add\n        /* \"#utility.yul\":5633:5653   */\n      swap1\n      pop\n        /* \"#utility.yul\":5426:5659   */\n      swap2\n      swap1\n      pop\n      jump\t// out\n        /* \"#utility.yul\":5665:5741   */\n    tag_106:\n        /* \"#utility.yul\":5701:5708   */\n      0x00\n        /* \"#utility.yul\":5730:5735   */\n      dup2\n        /* \"#utility.yul\":5719:5735   */\n      swap1\n      pop\n        /* \"#utility.yul\":5665:5741   */\n      swap2\n      swap1\n      pop\n      jump\t// out\n        /* \"#utility.yul\":5747:6119   */\n    tag_74:\n        /* \"#utility.yul\":5786:5790   */\n      0x00\n        /* \"#utility.yul\":5806:5825   */\n      tag_178\n        /* \"#utility.yul\":5823:5824   */\n      dup3\n        /* \"#utility.yul\":5806:5825   */\n      tag_106\n      jump\t// in\n    tag_178:\n        /* \"#utility.yul\":5801:5825   */\n      swap2\n      pop\n        /* \"#utility.yul\":5839:5858   */\n      tag_179\n        /* \"#utility.yul\":5856:5857   */\n      dup4\n        /* \"#utility.yul\":5839:5858   */\n      tag_106\n      jump\t// in\n    tag_179:\n        /* \"#utility.yul\":5834:5858   */\n      swap3\n      pop\n        /* \"#utility.yul\":5882:5883   */\n      dup3\n        /* \"#utility.yul\":5879:5880   */\n      dup3\n        /* \"#utility.yul\":5875:5884   */\n      sub\n        /* \"#utility.yul\":5867:5884   */\n      swap1\n      pop\n        /* \"#utility.yul\":6076:6077   */\n      dup2\n        /* \"#utility.yul\":6070:6074   */\n      dup2\n        /* \"#utility.yul\":6066:6078   */\n      slt\n        /* \"#utility.yul\":6062:6063   */\n      0x00\n        /* \"#utility.yul\":6059:6060   */\n      dup5\n        /* \"#utility.yul\":6055:6064   */\n      slt\n        /* \"#utility.yul\":6051:6079   */\n      and\n        /* \"#utility.yul\":6034:6035   */\n      dup3\n        /* \"#utility.yul\":6028:6032   */\n      dup3\n        /* \"#utility.yul\":6024:6036   */\n      sgt\n        /* \"#utility.yul\":6019:6020   */\n      0x00\n        /* \"#utility.yul\":6016:6017   */\n      dup6\n        /* \"#utility.yul\":6012:6021   */\n      slt\n        /* \"#utility.yul\":6005:6022   */\n      iszero\n        /* \"#utility.yul\":6001:6037   */\n      and\n        /* \"#utility.yul\":5985:6089   */\n      or\n        /* \"#utility.yul\":5982:6112   */\n      iszero\n      tag_180\n      jumpi\n        /* \"#utility.yul\":6092:6110   */\n      tag_181\n      tag_105\n      jump\t// in\n    tag_181:\n        /* \"#utility.yul\":5982:6112   */\n    tag_180:\n        /* \"#utility.yul\":5747:6119   */\n      swap3\n      swap2\n      pop\n      pop\n      jump\t// out\n        /* \"#utility.yul\":6125:6356   */\n    tag_86:\n        /* \"#utility.yul\":6163:6166   */\n      0x00\n        /* \"#utility.yul\":6186:6209   */\n      tag_183\n        /* \"#utility.yul\":6203:6208   */\n      dup3\n        /* \"#utility.yul\":6186:6209   */\n      tag_106\n      jump\t// in\n    tag_183:\n        /* \"#utility.yul\":6177:6209   */\n      swap2\n      pop\n        /* \"#utility.yul\":6231:6297   */\n      0x8000000000000000000000000000000000000000000000000000000000000000\n        /* \"#utility.yul\":6224:6229   */\n      dup3\n        /* \"#utility.yul\":6221:6298   */\n      sub\n        /* \"#utility.yul\":6218:6321   */\n      tag_184\n      jumpi\n        /* \"#utility.yul\":6301:6319   */\n      tag_185\n      tag_105\n      jump\t// in\n    tag_185:\n        /* \"#utility.yul\":6218:6321   */\n    tag_184:\n        /* \"#utility.yul\":6348:6349   */\n      0x01\n        /* \"#utility.yul\":6341:6346   */\n      dup3\n        /* \"#utility.yul\":6337:6350   */\n      sub\n        /* \"#utility.yul\":6330:6350   */\n      swap1\n      pop\n        /* \"#utility.yul\":6125:6356   */\n      swap2\n      swap1\n      pop\n      jump\t// out\n\n    auxdata: 0xa2646970667358221220cc9420b3cb0d13c2d9f80e061703b0ea5876e6d56806fda61192755def47bc1164736f6c634300081a0033\n}\n",
				"bytecode": {
					"linkReferences": {},
					"object": "6080604052348015600e575f80fd5b506109168061001c5f395ff3fe608060405234801561000f575f80fd5b5060043610610034575f3560e01c8063064767aa14610038578063f7c6c0e414610068575b5f80fd5b610052600480360381019061004d919061061c565b610098565b60405161005f91906106c3565b60405180910390f35b610082600480360381019061007d919061061c565b6101c2565b60405161008f91906106c3565b60405180910390f35b60605f8290505f815190505f5b6002826100b29190610746565b8110156101b7575f8382815181106100cd576100cc610776565b5b602001015160f81c60f81b905083600183856100e991906107a3565b6100f391906107a3565b8151811061010457610103610776565b5b602001015160f81c60f81b84838151811061012257610121610776565b5b60200101907effffffffffffffffffffffffffffffffffffffffffffffffffffffffffffff191690815f1a90535080846001848661016091906107a3565b61016a91906107a3565b8151811061017b5761017a610776565b5b60200101907effffffffffffffffffffffffffffffffffffffffffffffffffffffffffffff191690815f1a9053505080806001019150506100a5565b508192505050919050565b60605f8290505f815167ffffffffffffffff8111156101e4576101e36104f8565b5b60405190808252806020026020018201604052801561021757816020015b60608152602001906001900390816102025790505b5090505f805b835181101561039e575f600190505f85838151811061023f5761023e610776565b5b602001015160f81c60f81b60f81c905060f08160ff16106102635760049150610289565b60e08160ff16106102775760039150610288565b60c08160ff161061028757600291505b5b5b5f8267ffffffffffffffff8111156102a4576102a36104f8565b5b6040519080825280601f01601f1916602001820160405280156102d65781602001600182028036833780820191505090505b5090505f5b8381101561035a578781866102f091906107d6565b8151811061030157610300610776565b5b602001015160f81c60f81b82828151811061031f5761031e610776565b5b60200101907effffffffffffffffffffffffffffffffffffffffffffffffffffffffffffff191690815f1a90535080806001019150506102db565b508086868151811061036f5761036e610776565b5b6020026020010181905250848061038590610809565b955050828461039491906107d6565b935050505061021d565b5f845167ffffffffffffffff8111156103ba576103b96104f8565b5b6040519080825280601f01601f1916602001820160405280156103ec5781602001600182028036833780820191505090505b5090505f806001856103fe9190610859565b90505b5f81126104c0575f86828151811061041c5761041b610776565b5b602002602001015190505f5b81518110156104ab5781818151811061044457610443610776565b5b602001015160f81c60f81b85858151811061046257610461610776565b5b60200101907effffffffffffffffffffffffffffffffffffffffffffffffffffffffffffff191690815f1a905350838061049b90610809565b9450508080600101915050610428565b505080806104b890610899565b915050610401565b50819650505050505050919050565b5f604051905090565b5f80fd5b5f80fd5b5f80fd5b5f80fd5b5f601f19601f8301169050919050565b7f4e487b71000000000000000000000000000000000000000000000000000000005f52604160045260245ffd5b61052e826104e8565b810181811067ffffffffffffffff8211171561054d5761054c6104f8565b5b80604052505050565b5f61055f6104cf565b905061056b8282610525565b919050565b5f67ffffffffffffffff82111561058a576105896104f8565b5b610593826104e8565b9050602081019050919050565b828183375f83830152505050565b5f6105c06105bb84610570565b610556565b9050828152602081018484840111156105dc576105db6104e4565b5b6105e78482856105a0565b509392505050565b5f82601f830112610603576106026104e0565b5b81356106138482602086016105ae565b91505092915050565b5f60208284031215610631576106306104d8565b5b5f82013567ffffffffffffffff81111561064e5761064d6104dc565b5b61065a848285016105ef565b91505092915050565b5f81519050919050565b5f82825260208201905092915050565b8281835e5f83830152505050565b5f61069582610663565b61069f818561066d565b93506106af81856020860161067d565b6106b8816104e8565b840191505092915050565b5f6020820190508181035f8301526106db818461068b565b905092915050565b5f819050919050565b7f4e487b71000000000000000000000000000000000000000000000000000000005f52601260045260245ffd5b7f4e487b71000000000000000000000000000000000000000000000000000000005f52601160045260245ffd5b5f610750826106e3565b915061075b836106e3565b92508261076b5761076a6106ec565b5b828204905092915050565b7f4e487b71000000000000000000000000000000000000000000000000000000005f52603260045260245ffd5b5f6107ad826106e3565b91506107b8836106e3565b92508282039050818111156107d0576107cf610719565b5b92915050565b5f6107e0826106e3565b91506107eb836106e3565b925082820190508082111561080357610802610719565b5b92915050565b5f610813826106e3565b91507fffffffffffffffffffffffffffffffffffffffffffffffffffffffffffffffff820361084557610844610719565b5b600182019050919050565b5f819050919050565b5f61086382610850565b915061086e83610850565b925082820390508181125f8412168282135f85121516171561089357610892610719565b5b92915050565b5f6108a382610850565b91507f800000000000000000000000000000000000000000000000000000000000000082036108d5576108d4610719565b5b60018203905091905056fea2646970667358221220cc9420b3cb0d13c2d9f80e061703b0ea5876e6d56806fda61192755def47bc1164736f6c634300081a0033",
					"opcodes": "PUSH1 0x80 PUSH1 0x40 MSTORE CALLVALUE DUP1 ISZERO PUSH1 0xE JUMPI PUSH0 DUP1 REVERT JUMPDEST POP PUSH2 0x916 DUP1 PUSH2 0x1C PUSH0 CODECOPY PUSH0 RETURN INVALID PUSH1 0x80 PUSH1 0x40 MSTORE CALLVALUE DUP1 ISZERO PUSH2 0xF JUMPI PUSH0 DUP1 REVERT JUMPDEST POP PUSH1 0x4 CALLDATASIZE LT PUSH2 0x34 JUMPI PUSH0 CALLDATALOAD PUSH1 0xE0 SHR DUP1 PUSH4 0x64767AA EQ PUSH2 0x38 JUMPI DUP1 PUSH4 0xF7C6C0E4 EQ PUSH2 0x68 JUMPI JUMPDEST PUSH0 DUP1 REVERT JUMPDEST PUSH2 0x52 PUSH1 0x4 DUP1 CALLDATASIZE SUB DUP2 ADD SWAP1 PUSH2 0x4D SWAP2 SWAP1 PUSH2 0x61C JUMP JUMPDEST PUSH2 0x98 JUMP JUMPDEST PUSH1 0x40 MLOAD PUSH2 0x5F SWAP2 SWAP1 PUSH2 0x6C3 JUMP JUMPDEST PUSH1 0x40 MLOAD DUP1 SWAP2 SUB SWAP1 RETURN JUMPDEST PUSH2 0x82 PUSH1 0x4 DUP1 CALLDATASIZE SUB DUP2 ADD SWAP1 PUSH2 0x7D SWAP2 SWAP1 PUSH2 0x61C JUMP JUMPDEST PUSH2 0x1C2 JUMP JUMPDEST PUSH1 0x40 MLOAD PUSH2 0x8F SWAP2 SWAP1 PUSH2 0x6C3 JUMP JUMPDEST PUSH1 0x40 MLOAD DUP1 SWAP2 SUB SWAP1 RETURN JUMPDEST PUSH1 0x60 PUSH0 DUP3 SWAP1 POP PUSH0 DUP2 MLOAD SWAP1 POP PUSH0 JUMPDEST PUSH1 0x2 DUP3 PUSH2 0xB2 SWAP2 SWAP1 PUSH2 0x746 JUMP JUMPDEST DUP2 LT ISZERO PUSH2 0x1B7 JUMPI PUSH0 DUP4 DUP3 DUP2 MLOAD DUP2 LT PUSH2 0xCD JUMPI PUSH2 0xCC PUSH2 0x776 JUMP JUMPDEST JUMPDEST PUSH1 0x20 ADD ADD MLOAD PUSH1 0xF8 SHR PUSH1 0xF8 SHL SWAP1 POP DUP4 PUSH1 0x1 DUP4 DUP6 PUSH2 0xE9 SWAP2 SWAP1 PUSH2 0x7A3 JUMP JUMPDEST PUSH2 0xF3 SWAP2 SWAP1 PUSH2 0x7A3 JUMP JUMPDEST DUP2 MLOAD DUP2 LT PUSH2 0x104 JUMPI PUSH2 0x103 PUSH2 0x776 JUMP JUMPDEST JUMPDEST PUSH1 0x20 ADD ADD MLOAD PUSH1 0xF8 SHR PUSH1 0xF8 SHL DUP5 DUP4 DUP2 MLOAD DUP2 LT PUSH2 0x122 JUMPI PUSH2 0x121 PUSH2 0x776 JUMP JUMPDEST JUMPDEST PUSH1 0x20 ADD ADD SWAP1 PUSH31 0xFFFFFFFFFFFFFFFFFFFFFFFFFFFFFFFFFFFFFFFFFFFFFFFFFFFFFFFFFFFFFF NOT AND SWAP1 DUP2 PUSH0 BYTE SWAP1 MSTORE8 POP DUP1 DUP5 PUSH1 0x1 DUP5 DUP7 PUSH2 0x160 SWAP2 SWAP1 PUSH2 0x7A3 JUMP JUMPDEST PUSH2 0x16A SWAP2 SWAP1 PUSH2 0x7A3 JUMP JUMPDEST DUP2 MLOAD DUP2 LT PUSH2 0x17B JUMPI PUSH2 0x17A PUSH2 0x776 JUMP JUMPDEST JUMPDEST PUSH1 0x20 ADD ADD SWAP1 PUSH31 0xFFFFFFFFFFFFFFFFFFFFFFFFFFFFFFFFFFFFFFFFFFFFFFFFFFFFFFFFFFFFFF NOT AND SWAP1 DUP2 PUSH0 BYTE SWAP1 MSTORE8 POP POP DUP1 DUP1 PUSH1 0x1 ADD SWAP2 POP POP PUSH2 0xA5 JUMP JUMPDEST POP DUP2 SWAP3 POP POP POP SWAP2 SWAP1 POP JUMP JUMPDEST PUSH1 0x60 PUSH0 DUP3 SWAP1 POP PUSH0 DUP2 MLOAD PUSH8 0xFFFFFFFFFFFFFFFF DUP2 GT ISZERO PUSH2 0x1E4 JUMPI PUSH2 0x1E3 PUSH2 0x4F8 JUMP JUMPDEST JUMPDEST PUSH1 0x40 MLOAD SWAP1 DUP1 DUP3 MSTORE DUP1 PUSH1 0x20 MUL PUSH1 0x20 ADD DUP3 ADD PUSH1 0x40 MSTORE DUP1 ISZERO PUSH2 0x217 JUMPI DUP2 PUSH1 0x20 ADD JUMPDEST PUSH1 0x60 DUP2 MSTORE PUSH1 0x20 ADD SWAP1 PUSH1 0x1 SWAP1 SUB SWAP1 DUP2 PUSH2 0x202 JUMPI SWAP1 POP JUMPDEST POP SWAP1 POP PUSH0 DUP1 JUMPDEST DUP4 MLOAD DUP2 LT ISZERO PUSH2 0x39E JUMPI PUSH0 PUSH1 0x1 SWAP1 POP PUSH0 DUP6 DUP4 DUP2 MLOAD DUP2 LT PUSH2 0x23F JUMPI PUSH2 0x23E PUSH2 0x776 JUMP JUMPDEST JUMPDEST PUSH1 0x20 ADD ADD MLOAD PUSH1 0xF8 SHR PUSH1 0xF8 SHL PUSH1 0xF8 SHR SWAP1 POP PUSH1 0xF0 DUP2 PUSH1 0xFF AND LT PUSH2 0x263 JUMPI PUSH1 0x4 SWAP2 POP PUSH2 0x289 JUMP JUMPDEST PUSH1 0xE0 DUP2 PUSH1 0xFF AND LT PUSH2 0x277 JUMPI PUSH1 0x3 SWAP2 POP PUSH2 0x288 JUMP JUMPDEST PUSH1 0xC0 DUP2 PUSH1 0xFF AND LT PUSH2 0x287 JUMPI PUSH1 0x2 SWAP2 POP JUMPDEST JUMPDEST JUMPDEST PUSH0 DUP3 PUSH8 0xFFFFFFFFFFFFFFFF DUP2 GT ISZERO PUSH2 0x2A4 JUMPI PUSH2 0x2A3 PUSH2 0x4F8 JUMP JUMPDEST JUMPDEST PUSH1 0x40 MLOAD SWAP1 DUP1 DUP3 MSTORE DUP1 PUSH1 0x1F ADD PUSH1 0x1F NOT AND PUSH1 0x20 ADD DUP3 ADD PUSH1 0x40 MSTORE DUP1 ISZERO PUSH2 0x2D6 JUMPI DUP2 PUSH1 0x20 ADD PUSH1 0x1 DUP3 MUL DUP1 CALLDATASIZE DUP4 CALLDATACOPY DUP1 DUP3 ADD SWAP2 POP POP SWAP1 POP JUMPDEST POP SWAP1 POP PUSH0 JUMPDEST DUP4 DUP2 LT ISZERO PUSH2 0x35A JUMPI DUP8 DUP2 DUP7 PUSH2 0x2F0 SWAP2 SWAP1 PUSH2 0x7D6 JUMP JUMPDEST DUP2 MLOAD DUP2 LT PUSH2 0x301 JUMPI PUSH2 0x300 PUSH2 0x776 JUMP JUMPDEST JUMPDEST PUSH1 0x20 ADD ADD MLOAD PUSH1 0xF8 SHR PUSH1 0xF8 SHL DUP3 DUP3 DUP2 MLOAD DUP2 LT PUSH2 0x31F JUMPI PUSH2 0x31E PUSH2 0x776 JUMP JUMPDEST JUMPDEST PUSH1 0x20 ADD ADD SWAP1 PUSH31 0xFFFFFFFFFFFFFFFFFFFFFFFFFFFFFFFFFFFFFFFFFFFFFFFFFFFFFFFFFFFFFF NOT AND SWAP1 DUP2 PUSH0 BYTE SWAP1 MSTORE8 POP DUP1 DUP1 PUSH1 0x1 ADD SWAP2 POP POP PUSH2 0x2DB JUMP JUMPDEST POP DUP1 DUP7 DUP7 DUP2 MLOAD DUP2 LT PUSH2 0x36F JUMPI PUSH2 0x36E PUSH2 0x776 JUMP JUMPDEST JUMPDEST PUSH1 0x20 MUL PUSH1 0x20 ADD ADD DUP2 SWAP1 MSTORE POP DUP5 DUP1 PUSH2 0x385 SWAP1 PUSH2 0x809 JUMP JUMPDEST SWAP6 POP POP DUP3 DUP5 PUSH2 0x394 SWAP2 SWAP1 PUSH2 0x7D6 JUMP JUMPDEST SWAP4 POP POP POP POP PUSH2 0x21D JUMP JUMPDEST PUSH0 DUP5 MLOAD PUSH8 0xFFFFFFFFFFFFFFFF DUP2 GT ISZERO PUSH2 0x3BA JUMPI PUSH2 0x3B9 PUSH2 0x4F8 JUMP JUMPDEST JUMPDEST PUSH1 0x40 MLOAD SWAP1 DUP1 DUP3 MSTORE DUP1 PUSH1 0x1F ADD PUSH1 0x1F NOT AND PUSH1 0x20 ADD DUP3 ADD PUSH1 0x40 MSTORE DUP1 ISZERO PUSH2 0x3EC JUMPI DUP2 PUSH1 0x20 ADD PUSH1 0x1 DUP3 MUL DUP1 CALLDATASIZE DUP4 CALLDATACOPY DUP1 DUP3 ADD SWAP2 POP POP SWAP1 POP JUMPDEST POP SWAP1 POP PUSH0 DUP1 PUSH1 0x1 DUP6 PUSH2 0x3FE SWAP2 SWAP1 PUSH2 0x859 JUMP JUMPDEST SWAP1 POP JUMPDEST PUSH0 DUP2 SLT PUSH2 0x4C0 JUMPI PUSH0 DUP7 DUP3 DUP2 MLOAD DUP2 LT PUSH2 0x41C JUMPI PUSH2 0x41B PUSH2 0x776 JUMP JUMPDEST JUMPDEST PUSH1 0x20 MUL PUSH1 0x20 ADD ADD MLOAD SWAP1 POP PUSH0 JUMPDEST DUP2 MLOAD DUP2 LT ISZERO PUSH2 0x4AB JUMPI DUP2 DUP2 DUP2 MLOAD DUP2 LT PUSH2 0x444 JUMPI PUSH2 0x443 PUSH2 0x776 JUMP JUMPDEST JUMPDEST PUSH1 0x20 ADD ADD MLOAD PUSH1 0xF8 SHR PUSH1 0xF8 SHL DUP6 DUP6 DUP2 MLOAD DUP2 LT PUSH2 0x462 JUMPI PUSH2 0x461 PUSH2 0x776 JUMP JUMPDEST JUMPDEST PUSH1 0x20 ADD ADD SWAP1 PUSH31 0xFFFFFFFFFFFFFFFFFFFFFFFFFFFFFFFFFFFFFFFFFFFFFFFFFFFFFFFFFFFFFF NOT AND SWAP1 DUP2 PUSH0 BYTE SWAP1 MSTORE8 POP DUP4 DUP1 PUSH2 0x49B SWAP1 PUSH2 0x809 JUMP JUMPDEST SWAP5 POP POP DUP1 DUP1 PUSH1 0x1 ADD SWAP2 POP POP PUSH2 0x428 JUMP JUMPDEST POP POP DUP1 DUP1 PUSH2 0x4B8 SWAP1 PUSH2 0x899 JUMP JUMPDEST SWAP2 POP POP PUSH2 0x401 JUMP JUMPDEST POP DUP2 SWAP7 POP POP POP POP POP POP POP SWAP2 SWAP1 POP JUMP JUMPDEST PUSH0 PUSH1 0x40 MLOAD SWAP1 POP SWAP1 JUMP JUMPDEST PUSH0 DUP1 REVERT JUMPDEST PUSH0 DUP1 REVERT JUMPDEST PUSH0 DUP1 REVERT JUMPDEST PUSH0 DUP1 REVERT JUMPDEST PUSH0 PUSH1 0x1F NOT PUSH1 0x1F DUP4 ADD AND SWAP1 POP SWAP2 SWAP1 POP JUMP JUMPDEST PUSH32 0x4E487B7100000000000000000000000000000000000000000000000000000000 PUSH0 MSTORE PUSH1 0x41 PUSH1 0x4 MSTORE PUSH1 0x24 PUSH0 REVERT JUMPDEST PUSH2 0x52E DUP3 PUSH2 0x4E8 JUMP JUMPDEST DUP2 ADD DUP2 DUP2 LT PUSH8 0xFFFFFFFFFFFFFFFF DUP3 GT OR ISZERO PUSH2 0x54D JUMPI PUSH2 0x54C PUSH2 0x4F8 JUMP JUMPDEST JUMPDEST DUP1 PUSH1 0x40 MSTORE POP POP POP JUMP JUMPDEST PUSH0 PUSH2 0x55F PUSH2 0x4CF JUMP JUMPDEST SWAP1 POP PUSH2 0x56B DUP3 DUP3 PUSH2 0x525 JUMP JUMPDEST SWAP2 SWAP1 POP JUMP JUMPDEST PUSH0 PUSH8 0xFFFFFFFFFFFFFFFF DUP3 GT ISZERO PUSH2 0x58A JUMPI PUSH2 0x589 PUSH2 0x4F8 JUMP JUMPDEST JUMPDEST PUSH2 0x593 DUP3 PUSH2 0x4E8 JUMP JUMPDEST SWAP1 POP PUSH1 0x20 DUP2 ADD SWAP1 POP SWAP2 SWAP1 POP JUMP JUMPDEST DUP3 DUP2 DUP4 CALLDATACOPY PUSH0 DUP4 DUP4 ADD MSTORE POP POP POP JUMP JUMPDEST PUSH0 PUSH2 0x5C0 PUSH2 0x5BB DUP5 PUSH2 0x570 JUMP JUMPDEST PUSH2 0x556 JUMP JUMPDEST SWAP1 POP DUP3 DUP2 MSTORE PUSH1 0x20 DUP2 ADD DUP5 DUP5 DUP5 ADD GT ISZERO PUSH2 0x5DC JUMPI PUSH2 0x5DB PUSH2 0x4E4 JUMP JUMPDEST JUMPDEST PUSH2 0x5E7 DUP5 DUP3 DUP6 PUSH2 0x5A0 JUMP JUMPDEST POP SWAP4 SWAP3 POP POP POP JUMP JUMPDEST PUSH0 DUP3 PUSH1 0x1F DUP4 ADD SLT PUSH2 0x603 JUMPI PUSH2 0x602 PUSH2 0x4E0 JUMP JUMPDEST JUMPDEST DUP2 CALLDATALOAD PUSH2 0x613 DUP5 DUP3 PUSH1 0x20 DUP7 ADD PUSH2 0x5AE JUMP JUMPDEST SWAP2 POP POP SWAP3 SWAP2 POP POP JUMP JUMPDEST PUSH0 PUSH1 0x20 DUP3 DUP5 SUB SLT ISZERO PUSH2 0x631 JUMPI PUSH2 0x630 PUSH2 0x4D8 JUMP JUMPDEST JUMPDEST PUSH0 DUP3 ADD CALLDATALOAD PUSH8 0xFFFFFFFFFFFFFFFF DUP2 GT ISZERO PUSH2 0x64E JUMPI PUSH2 0x64D PUSH2 0x4DC JUMP JUMPDEST JUMPDEST PUSH2 0x65A DUP5 DUP3 DUP6 ADD PUSH2 0x5EF JUMP JUMPDEST SWAP2 POP POP SWAP3 SWAP2 POP POP JUMP JUMPDEST PUSH0 DUP2 MLOAD SWAP1 POP SWAP2 SWAP1 POP JUMP JUMPDEST PUSH0 DUP3 DUP3 MSTORE PUSH1 0x20 DUP3 ADD SWAP1 POP SWAP3 SWAP2 POP POP JUMP JUMPDEST DUP3 DUP2 DUP4 MCOPY PUSH0 DUP4 DUP4 ADD MSTORE POP POP POP JUMP JUMPDEST PUSH0 PUSH2 0x695 DUP3 PUSH2 0x663 JUMP JUMPDEST PUSH2 0x69F DUP2 DUP6 PUSH2 0x66D JUMP JUMPDEST SWAP4 POP PUSH2 0x6AF DUP2 DUP6 PUSH1 0x20 DUP7 ADD PUSH2 0x67D JUMP JUMPDEST PUSH2 0x6B8 DUP2 PUSH2 0x4E8 JUMP JUMPDEST DUP5 ADD SWAP2 POP POP SWAP3 SWAP2 POP POP JUMP JUMPDEST PUSH0 PUSH1 0x20 DUP3 ADD SWAP1 POP DUP2 DUP2 SUB PUSH0 DUP4 ADD MSTORE PUSH2 0x6DB DUP2 DUP5 PUSH2 0x68B JUMP JUMPDEST SWAP1 POP SWAP3 SWAP2 POP POP JUMP JUMPDEST PUSH0 DUP2 SWAP1 POP SWAP2 SWAP1 POP JUMP JUMPDEST PUSH32 0x4E487B7100000000000000000000000000000000000000000000000000000000 PUSH0 MSTORE PUSH1 0x12 PUSH1 0x4 MSTORE PUSH1 0x24 PUSH0 REVERT JUMPDEST PUSH32 0x4E487B7100000000000000000000000000000000000000000000000000000000 PUSH0 MSTORE PUSH1 0x11 PUSH1 0x4 MSTORE PUSH1 0x24 PUSH0 REVERT JUMPDEST PUSH0 PUSH2 0x750 DUP3 PUSH2 0x6E3 JUMP JUMPDEST SWAP2 POP PUSH2 0x75B DUP4 PUSH2 0x6E3 JUMP JUMPDEST SWAP3 POP DUP3 PUSH2 0x76B JUMPI PUSH2 0x76A PUSH2 0x6EC JUMP JUMPDEST JUMPDEST DUP3 DUP3 DIV SWAP1 POP SWAP3 SWAP2 POP POP JUMP JUMPDEST PUSH32 0x4E487B7100000000000000000000000000000000000000000000000000000000 PUSH0 MSTORE PUSH1 0x32 PUSH1 0x4 MSTORE PUSH1 0x24 PUSH0 REVERT JUMPDEST PUSH0 PUSH2 0x7AD DUP3 PUSH2 0x6E3 JUMP JUMPDEST SWAP2 POP PUSH2 0x7B8 DUP4 PUSH2 0x6E3 JUMP JUMPDEST SWAP3 POP DUP3 DUP3 SUB SWAP1 POP DUP2 DUP2 GT ISZERO PUSH2 0x7D0 JUMPI PUSH2 0x7CF PUSH2 0x719 JUMP JUMPDEST JUMPDEST SWAP3 SWAP2 POP POP JUMP JUMPDEST PUSH0 PUSH2 0x7E0 DUP3 PUSH2 0x6E3 JUMP JUMPDEST SWAP2 POP PUSH2 0x7EB DUP4 PUSH2 0x6E3 JUMP JUMPDEST SWAP3 POP DUP3 DUP3 ADD SWAP1 POP DUP1 DUP3 GT ISZERO PUSH2 0x803 JUMPI PUSH2 0x802 PUSH2 0x719 JUMP JUMPDEST JUMPDEST SWAP3 SWAP2 POP POP JUMP JUMPDEST PUSH0 PUSH2 0x813 DUP3 PUSH2 0x6E3 JUMP JUMPDEST SWAP2 POP PUSH32 0xFFFFFFFFFFFFFFFFFFFFFFFFFFFFFFFFFFFFFFFFFFFFFFFFFFFFFFFFFFFFFFFF DUP3 SUB PUSH2 0x845 JUMPI PUSH2 0x844 PUSH2 0x719 JUMP JUMPDEST JUMPDEST PUSH1 0x1 DUP3 ADD SWAP1 POP SWAP2 SWAP1 POP JUMP JUMPDEST PUSH0 DUP2 SWAP1 POP SWAP2 SWAP1 POP JUMP JUMPDEST PUSH0 PUSH2 0x863 DUP3 PUSH2 0x850 JUMP JUMPDEST SWAP2 POP PUSH2 0x86E DUP4 PUSH2 0x850 JUMP JUMPDEST SWAP3 POP DUP3 DUP3 SUB SWAP1 POP DUP2 DUP2 SLT PUSH0 DUP5 SLT AND DUP3 DUP3 SGT PUSH0 DUP6 SLT ISZERO AND OR ISZERO PUSH2 0x893 JUMPI PUSH2 0x892 PUSH2 0x719 JUMP JUMPDEST JUMPDEST SWAP3 SWAP2 POP POP JUMP JUMPDEST PUSH0 PUSH2 0x8A3 DUP3 PUSH2 0x850 JUMP JUMPDEST SWAP2 POP PUSH32 0x8000000000000000000000000000000000000000000000000000000000000000 DUP3 SUB PUSH2 0x8D5 JUMPI PUSH2 0x8D4 PUSH2 0x719 JUMP JUMPDEST JUMPDEST PUSH1 0x1 DUP3 SUB SWAP1 POP SWAP2 SWAP1 POP JUMP INVALID LOG2 PUSH5 0x6970667358 0x22 SLT KECCAK256 0xCC SWAP5 KECCAK256 0xB3 0xCB 0xD SGT 0xC2 0xD9 0xF8 0xE MOD OR SUB 0xB0 0xEA PC PUSH23 0xE6D56806FDA61192755DEF47BC1164736F6C634300081A STOP CALLER "
				},
				"gasEstimates": {
					"creation": {
						"codeDepositCost": "465200",
						"executionCost": "497",
						"totalCost": "465697"
					},
					"external": {
						"reverse(string)": "infinite",
						"reverseZh(string)": "infinite"
					}
				},
				"methodIdentifiers": {
					"reverse(string)": "064767aa",
					"reverseZh(string)": "f7c6c0e4"
				}
			},
			"storageLayout": {
				"storage": [],
				"types": null
			},
			"userdoc": {
				"kind": "user",
				"methods": {},
				"version": 1
			}
		}
	}
}