{
	"data": {
		"bytecode": {
			"linkReferences": {},
			"object": "6080604052348015600e575f80fd5b50610b9a8061001c5f395ff3fe608060405234801561000f575f80fd5b5060043610610055575f3560e01c80630cb6aaf11461005957806312c6398514610089578063b9830ff1146100b9578063baa40e5c146100c3578063fc36e15b146100f3575b5f80fd5b610073600480360381019061006e919061042c565b61010f565b60405161008091906104c7565b60405180910390f35b6100a3600480360381019061009e9190610613565b6101b5565b6040516100b09190610669565b60405180910390f35b6100c16101e1565b005b6100dd60048036038101906100d891906106df565b610248565b6040516100ea9190610669565b60405180910390f35b61010d600480360381019061010891906106df565b610271565b005b6002818154811061011e575f80fd5b905f5260205f20015f91509050805461013690610757565b80601f016020809104026020016040519081016040528092919081815260200182805461016290610757565b80156101ad5780601f10610184576101008083540402835291602001916101ad565b820191905f5260205f20905b81548152906001019060200180831161019057829003601f168201915b505050505081565b5f818051602081018201805184825260208301602085012081835280955050505050505f915090505481565b5f5b600280549050811015610238575f6002828154811061020557610204610787565b5b905f5260205f200160405161021a9190610850565b90815260200160405180910390205f905580806001019150506101e3565b5060025f610246919061034f565b565b5f80838360405161025a92919061088a565b908152602001604051809103902054905092915050565b60015f838360405161028492919061088a565b90815260200160405180910390205f8282546102a091906108cf565b92505081905550600182826040516102b992919061088a565b90815260200160405180910390205f9054906101000a900460ff1661034b576002828290918060018154018082558091505060019003905f5260205f20015f909192909192909192909192509182610312929190610a97565b50600180838360405161032692919061088a565b90815260200160405180910390205f6101000a81548160ff0219169083151502179055505b5050565b5080545f8255905f5260205f209081019061036a919061036d565b50565b5b8082111561038c575f81816103839190610390565b5060010161036e565b5090565b50805461039c90610757565b5f825580601f106103ad57506103ca565b601f0160209004905f5260205f20908101906103c991906103cd565b5b50565b5b808211156103e4575f815f9055506001016103ce565b5090565b5f604051905090565b5f80fd5b5f80fd5b5f819050919050565b61040b816103f9565b8114610415575f80fd5b50565b5f8135905061042681610402565b92915050565b5f60208284031215610441576104406103f1565b5b5f61044e84828501610418565b91505092915050565b5f81519050919050565b5f82825260208201905092915050565b8281835e5f83830152505050565b5f601f19601f8301169050919050565b5f61049982610457565b6104a38185610461565b93506104b3818560208601610471565b6104bc8161047f565b840191505092915050565b5f6020820190508181035f8301526104df818461048f565b905092915050565b5f80fd5b5f80fd5b7f4e487b71000000000000000000000000000000000000000000000000000000005f52604160045260245ffd5b6105258261047f565b810181811067ffffffffffffffff82111715610544576105436104ef565b5b80604052505050565b5f6105566103e8565b9050610562828261051c565b919050565b5f67ffffffffffffffff821115610581576105806104ef565b5b61058a8261047f565b9050602081019050919050565b828183375f83830152505050565b5f6105b76105b284610567565b61054d565b9050828152602081018484840111156105d3576105d26104eb565b5b6105de848285610597565b509392505050565b5f82601f8301126105fa576105f96104e7565b5b813561060a8482602086016105a5565b91505092915050565b5f60208284031215610628576106276103f1565b5b5f82013567ffffffffffffffff811115610645576106446103f5565b5b610651848285016105e6565b91505092915050565b610663816103f9565b82525050565b5f60208201905061067c5f83018461065a565b92915050565b5f80fd5b5f80fd5b5f8083601f84011261069f5761069e6104e7565b5b8235905067ffffffffffffffff8111156106bc576106bb610682565b5b6020830191508360018202830111156106d8576106d7610686565b5b9250929050565b5f80602083850312156106f5576106f46103f1565b5b5f83013567ffffffffffffffff811115610712576107116103f5565b5b61071e8582860161068a565b92509250509250929050565b7f4e487b71000000000000000000000000000000000000000000000000000000005f52602260045260245ffd5b5f600282049050600182168061076e57607f821691505b6020821081036107815761078061072a565b5b50919050565b7f4e487b71000000000000000000000000000000000000000000000000000000005f52603260045260245ffd5b5f81905092915050565b5f819050815f5260205f209050919050565b5f81546107dc81610757565b6107e681866107b4565b9450600182165f8114610800576001811461081557610847565b60ff1983168652811515820286019350610847565b61081e856107be565b5f5b8381101561083f57815481890152600182019150602081019050610820565b838801955050505b50505092915050565b5f61085b82846107d0565b915081905092915050565b5f61087183856107b4565b935061087e838584610597565b82840190509392505050565b5f610896828486610866565b91508190509392505050565b7f4e487b71000000000000000000000000000000000000000000000000000000005f52601160045260245ffd5b5f6108d9826103f9565b91506108e4836103f9565b92508282019050808211156108fc576108fb6108a2565b5b92915050565b5f82905092915050565b5f6020601f8301049050919050565b5f82821b905092915050565b5f600883026109567fffffffffffffffffffffffffffffffffffffffffffffffffffffffffffffffff8261091b565b610960868361091b565b95508019841693508086168417925050509392505050565b5f819050919050565b5f61099b610996610991846103f9565b610978565b6103f9565b9050919050565b5f819050919050565b6109b483610981565b6109c86109c0826109a2565b848454610927565b825550505050565b5f90565b6109dc6109d0565b6109e78184846109ab565b505050565b5b81811015610a0a576109ff5f826109d4565b6001810190506109ed565b5050565b601f821115610a4f57610a20816107be565b610a298461090c565b81016020851015610a38578190505b610a4c610a448561090c565b8301826109ec565b50505b505050565b5f82821c905092915050565b5f610a6f5f1984600802610a54565b1980831691505092915050565b5f610a878383610a60565b9150826002028217905092915050565b610aa18383610902565b67ffffffffffffffff811115610aba57610ab96104ef565b5b610ac48254610757565b610acf828285610a0e565b5f601f831160018114610afc575f8415610aea578287013590505b610af48582610a7c565b865550610b5b565b601f198416610b0a866107be565b5f5b82811015610b3157848901358255600182019150602085019450602081019050610b0c565b86831015610b4e5784890135610b4a601f891682610a60565b8355505b6001600288020188555050505b5050505050505056fea2646970667358221220168af5e7b4fe2da928fc09e5fb3e55a2a45a4de762561f5a78c4f994c77f107d64736f6c634300081a0033",
			"opcodes": "PUSH1 0x80 PUSH1 0x40 MSTORE CALLVALUE DUP1 ISZERO PUSH1 0xE JUMPI PUSH0 DUP1 REVERT JUMPDEST POP PUSH2 0xB9A DUP1 PUSH2 0x1C PUSH0 CODECOPY PUSH0 RETURN INVALID PUSH1 0x80 PUSH1 0x40 MSTORE CALLVALUE DUP1 ISZERO PUSH2 0xF JUMPI PUSH0 DUP1 REVERT JUMPDEST POP PUSH1 0x4 CALLDATASIZE LT PUSH2 0x55 JUMPI PUSH0 CALLDATALOAD PUSH1 0xE0 SHR DUP1 PUSH4 0xCB6AAF1 EQ PUSH2 0x59 JUMPI DUP1 PUSH4 0x12C63985 EQ PUSH2 0x89 JUMPI DUP1 PUSH4 0xB9830FF1 EQ PUSH2 0xB9 JUMPI DUP1 PUSH4 0xBAA40E5C EQ PUSH2 0xC3 JUMPI DUP1 PUSH4 0xFC36E15B EQ PUSH2 0xF3 JUMPI JUMPDEST PUSH0 DUP1 REVERT JUMPDEST PUSH2 0x73 PUSH1 0x4 DUP1 CALLDATASIZE SUB DUP2 ADD SWAP1 PUSH2 0x6E SWAP2 SWAP1 PUSH2 0x42C JUMP JUMPDEST PUSH2 0x10F JUMP JUMPDEST PUSH1 0x40 MLOAD PUSH2 0x80 SWAP2 SWAP1 PUSH2 0x4C7 JUMP JUMPDEST PUSH1 0x40 MLOAD DUP1 SWAP2 SUB SWAP1 RETURN JUMPDEST PUSH2 0xA3 PUSH1 0x4 DUP1 CALLDATASIZE SUB DUP2 ADD SWAP1 PUSH2 0x9E SWAP2 SWAP1 PUSH2 0x613 JUMP JUMPDEST PUSH2 0x1B5 JUMP JUMPDEST PUSH1 0x40 MLOAD PUSH2 0xB0 SWAP2 SWAP1 PUSH2 0x669 JUMP JUMPDEST PUSH1 0x40 MLOAD DUP1 SWAP2 SUB SWAP1 RETURN JUMPDEST PUSH2 0xC1 PUSH2 0x1E1 JUMP JUMPDEST STOP JUMPDEST PUSH2 0xDD PUSH1 0x4 DUP1 CALLDATASIZE SUB DUP2 ADD SWAP1 PUSH2 0xD8 SWAP2 SWAP1 PUSH2 0x6DF JUMP JUMPDEST PUSH2 0x248 JUMP JUMPDEST PUSH1 0x40 MLOAD PUSH2 0xEA SWAP2 SWAP1 PUSH2 0x669 JUMP JUMPDEST PUSH1 0x40 MLOAD DUP1 SWAP2 SUB SWAP1 RETURN JUMPDEST PUSH2 0x10D PUSH1 0x4 DUP1 CALLDATASIZE SUB DUP2 ADD SWAP1 PUSH2 0x108 SWAP2 SWAP1 PUSH2 0x6DF JUMP JUMPDEST PUSH2 0x271 JUMP JUMPDEST STOP JUMPDEST PUSH1 0x2 DUP2 DUP2 SLOAD DUP2 LT PUSH2 0x11E JUMPI PUSH0 DUP1 REVERT JUMPDEST SWAP1 PUSH0 MSTORE PUSH1 0x20 PUSH0 KECCAK256 ADD PUSH0 SWAP2 POP SWAP1 POP DUP1 SLOAD PUSH2 0x136 SWAP1 PUSH2 0x757 JUMP JUMPDEST DUP1 PUSH1 0x1F ADD PUSH1 0x20 DUP1 SWAP2 DIV MUL PUSH1 0x20 ADD PUSH1 0x40 MLOAD SWAP1 DUP2 ADD PUSH1 0x40 MSTORE DUP1 SWAP3 SWAP2 SWAP1 DUP2 DUP2 MSTORE PUSH1 0x20 ADD DUP3 DUP1 SLOAD PUSH2 0x162 SWAP1 PUSH2 0x757 JUMP JUMPDEST DUP1 ISZERO PUSH2 0x1AD JUMPI DUP1 PUSH1 0x1F LT PUSH2 0x184 JUMPI PUSH2 0x100 DUP1 DUP4 SLOAD DIV MUL DUP4 MSTORE SWAP2 PUSH1 0x20 ADD SWAP2 PUSH2 0x1AD JUMP JUMPDEST DUP3 ADD SWAP2 SWAP1 PUSH0 MSTORE PUSH1 0x20 PUSH0 KECCAK256 SWAP1 JUMPDEST DUP2 SLOAD DUP2 MSTORE SWAP1 PUSH1 0x1 ADD SWAP1 PUSH1 0x20 ADD DUP1 DUP4 GT PUSH2 0x190 JUMPI DUP3 SWAP1 SUB PUSH1 0x1F AND DUP3 ADD SWAP2 JUMPDEST POP POP POP POP POP DUP2 JUMP JUMPDEST PUSH0 DUP2 DUP1 MLOAD PUSH1 0x20 DUP2 ADD DUP3 ADD DUP1 MLOAD DUP5 DUP3 MSTORE PUSH1 0x20 DUP4 ADD PUSH1 0x20 DUP6 ADD KECCAK256 DUP2 DUP4 MSTORE DUP1 SWAP6 POP POP POP POP POP POP PUSH0 SWAP2 POP SWAP1 POP SLOAD DUP2 JUMP JUMPDEST PUSH0 JUMPDEST PUSH1 0x2 DUP1 SLOAD SWAP1 POP DUP2 LT ISZERO PUSH2 0x238 JUMPI PUSH0 PUSH1 0x2 DUP3 DUP2 SLOAD DUP2 LT PUSH2 0x205 JUMPI PUSH2 0x204 PUSH2 0x787 JUMP JUMPDEST JUMPDEST SWAP1 PUSH0 MSTORE PUSH1 0x20 PUSH0 KECCAK256 ADD PUSH1 0x40 MLOAD PUSH2 0x21A SWAP2 SWAP1 PUSH2 0x850 JUMP JUMPDEST SWAP1 DUP2 MSTORE PUSH1 0x20 ADD PUSH1 0x40 MLOAD DUP1 SWAP2 SUB SWAP1 KECCAK256 PUSH0 SWAP1 SSTORE DUP1 DUP1 PUSH1 0x1 ADD SWAP2 POP POP PUSH2 0x1E3 JUMP JUMPDEST POP PUSH1 0x2 PUSH0 PUSH2 0x246 SWAP2 SWAP1 PUSH2 0x34F JUMP JUMPDEST JUMP JUMPDEST PUSH0 DUP1 DUP4 DUP4 PUSH1 0x40 MLOAD PUSH2 0x25A SWAP3 SWAP2 SWAP1 PUSH2 0x88A JUMP JUMPDEST SWAP1 DUP2 MSTORE PUSH1 0x20 ADD PUSH1 0x40 MLOAD DUP1 SWAP2 SUB SWAP1 KECCAK256 SLOAD SWAP1 POP SWAP3 SWAP2 POP POP JUMP JUMPDEST PUSH1 0x1 PUSH0 DUP4 DUP4 PUSH1 0x40 MLOAD PUSH2 0x284 SWAP3 SWAP2 SWAP1 PUSH2 0x88A JUMP JUMPDEST SWAP1 DUP2 MSTORE PUSH1 0x20 ADD PUSH1 0x40 MLOAD DUP1 SWAP2 SUB SWAP1 KECCAK256 PUSH0 DUP3 DUP3 SLOAD PUSH2 0x2A0 SWAP2 SWAP1 PUSH2 0x8CF JUMP JUMPDEST SWAP3 POP POP DUP2 SWAP1 SSTORE POP PUSH1 0x1 DUP3 DUP3 PUSH1 0x40 MLOAD PUSH2 0x2B9 SWAP3 SWAP2 SWAP1 PUSH2 0x88A JUMP JUMPDEST SWAP1 DUP2 MSTORE PUSH1 0x20 ADD PUSH1 0x40 MLOAD DUP1 SWAP2 SUB SWAP1 KECCAK256 PUSH0 SWAP1 SLOAD SWAP1 PUSH2 0x100 EXP SWAP1 DIV PUSH1 0xFF AND PUSH2 0x34B JUMPI PUSH1 0x2 DUP3 DUP3 SWAP1 SWAP2 DUP1 PUSH1 0x1 DUP2 SLOAD ADD DUP1 DUP3 SSTORE DUP1 SWAP2 POP POP PUSH1 0x1 SWAP1 SUB SWAP1 PUSH0 MSTORE PUSH1 0x20 PUSH0 KECCAK256 ADD PUSH0 SWAP1 SWAP2 SWAP3 SWAP1 SWAP2 SWAP3 SWAP1 SWAP2 SWAP3 SWAP1 SWAP2 SWAP3 POP SWAP2 DUP3 PUSH2 0x312 SWAP3 SWAP2 SWAP1 PUSH2 0xA97 JUMP JUMPDEST POP PUSH1 0x1 DUP1 DUP4 DUP4 PUSH1 0x40 MLOAD PUSH2 0x326 SWAP3 SWAP2 SWAP1 PUSH2 0x88A JUMP JUMPDEST SWAP1 DUP2 MSTORE PUSH1 0x20 ADD PUSH1 0x40 MLOAD DUP1 SWAP2 SUB SWAP1 KECCAK256 PUSH0 PUSH2 0x100 EXP DUP2 SLOAD DUP2 PUSH1 0xFF MUL NOT AND SWAP1 DUP4 ISZERO ISZERO MUL OR SWAP1 SSTORE POP JUMPDEST POP POP JUMP JUMPDEST POP DUP1 SLOAD PUSH0 DUP3 SSTORE SWAP1 PUSH0 MSTORE PUSH1 0x20 PUSH0 KECCAK256 SWAP1 DUP2 ADD SWAP1 PUSH2 0x36A SWAP2 SWAP1 PUSH2 0x36D JUMP JUMPDEST POP JUMP JUMPDEST JUMPDEST DUP1 DUP3 GT ISZERO PUSH2 0x38C JUMPI PUSH0 DUP2 DUP2 PUSH2 0x383 SWAP2 SWAP1 PUSH2 0x390 JUMP JUMPDEST POP PUSH1 0x1 ADD PUSH2 0x36E JUMP JUMPDEST POP SWAP1 JUMP JUMPDEST POP DUP1 SLOAD PUSH2 0x39C SWAP1 PUSH2 0x757 JUMP JUMPDEST PUSH0 DUP3 SSTORE DUP1 PUSH1 0x1F LT PUSH2 0x3AD JUMPI POP PUSH2 0x3CA JUMP JUMPDEST PUSH1 0x1F ADD PUSH1 0x20 SWAP1 DIV SWAP1 PUSH0 MSTORE PUSH1 0x20 PUSH0 KECCAK256 SWAP1 DUP2 ADD SWAP1 PUSH2 0x3C9 SWAP2 SWAP1 PUSH2 0x3CD JUMP JUMPDEST JUMPDEST POP JUMP JUMPDEST JUMPDEST DUP1 DUP3 GT ISZERO PUSH2 0x3E4 JUMPI PUSH0 DUP2 PUSH0 SWAP1 SSTORE POP PUSH1 0x1 ADD PUSH2 0x3CE JUMP JUMPDEST POP SWAP1 JUMP JUMPDEST PUSH0 PUSH1 0x40 MLOAD SWAP1 POP SWAP1 JUMP JUMPDEST PUSH0 DUP1 REVERT JUMPDEST PUSH0 DUP1 REVERT JUMPDEST PUSH0 DUP2 SWAP1 POP SWAP2 SWAP1 POP JUMP JUMPDEST PUSH2 0x40B DUP2 PUSH2 0x3F9 JUMP JUMPDEST DUP2 EQ PUSH2 0x415 JUMPI PUSH0 DUP1 REVERT JUMPDEST POP JUMP JUMPDEST PUSH0 DUP2 CALLDATALOAD SWAP1 POP PUSH2 0x426 DUP2 PUSH2 0x402 JUMP JUMPDEST SWAP3 SWAP2 POP POP JUMP JUMPDEST PUSH0 PUSH1 0x20 DUP3 DUP5 SUB SLT ISZERO PUSH2 0x441 JUMPI PUSH2 0x440 PUSH2 0x3F1 JUMP JUMPDEST JUMPDEST PUSH0 PUSH2 0x44E DUP5 DUP3 DUP6 ADD PUSH2 0x418 JUMP JUMPDEST SWAP2 POP POP SWAP3 SWAP2 POP POP JUMP JUMPDEST PUSH0 DUP2 MLOAD SWAP1 POP SWAP2 SWAP1 POP JUMP JUMPDEST PUSH0 DUP3 DUP3 MSTORE PUSH1 0x20 DUP3 ADD SWAP1 POP SWAP3 SWAP2 POP POP JUMP JUMPDEST DUP3 DUP2 DUP4 MCOPY PUSH0 DUP4 DUP4 ADD MSTORE POP POP POP JUMP JUMPDEST PUSH0 PUSH1 0x1F NOT PUSH1 0x1F DUP4 ADD AND SWAP1 POP SWAP2 SWAP1 POP JUMP JUMPDEST PUSH0 PUSH2 0x499 DUP3 PUSH2 0x457 JUMP JUMPDEST PUSH2 0x4A3 DUP2 DUP6 PUSH2 0x461 JUMP JUMPDEST SWAP4 POP PUSH2 0x4B3 DUP2 DUP6 PUSH1 0x20 DUP7 ADD PUSH2 0x471 JUMP JUMPDEST PUSH2 0x4BC DUP2 PUSH2 0x47F JUMP JUMPDEST DUP5 ADD SWAP2 POP POP SWAP3 SWAP2 POP POP JUMP JUMPDEST PUSH0 PUSH1 0x20 DUP3 ADD SWAP1 POP DUP2 DUP2 SUB PUSH0 DUP4 ADD MSTORE PUSH2 0x4DF DUP2 DUP5 PUSH2 0x48F JUMP JUMPDEST SWAP1 POP SWAP3 SWAP2 POP POP JUMP JUMPDEST PUSH0 DUP1 REVERT JUMPDEST PUSH0 DUP1 REVERT JUMPDEST PUSH32 0x4E487B7100000000000000000000000000000000000000000000000000000000 PUSH0 MSTORE PUSH1 0x41 PUSH1 0x4 MSTORE PUSH1 0x24 PUSH0 REVERT JUMPDEST PUSH2 0x525 DUP3 PUSH2 0x47F JUMP JUMPDEST DUP2 ADD DUP2 DUP2 LT PUSH8 0xFFFFFFFFFFFFFFFF DUP3 GT OR ISZERO PUSH2 0x544 JUMPI PUSH2 0x543 PUSH2 0x4EF JUMP JUMPDEST JUMPDEST DUP1 PUSH1 0x40 MSTORE POP POP POP JUMP JUMPDEST PUSH0 PUSH2 0x556 PUSH2 0x3E8 JUMP JUMPDEST SWAP1 POP PUSH2 0x562 DUP3 DUP3 PUSH2 0x51C JUMP JUMPDEST SWAP2 SWAP1 POP JUMP JUMPDEST PUSH0 PUSH8 0xFFFFFFFFFFFFFFFF DUP3 GT ISZERO PUSH2 0x581 JUMPI PUSH2 0x580 PUSH2 0x4EF JUMP JUMPDEST JUMPDEST PUSH2 0x58A DUP3 PUSH2 0x47F JUMP JUMPDEST SWAP1 POP PUSH1 0x20 DUP2 ADD SWAP1 POP SWAP2 SWAP1 POP JUMP JUMPDEST DUP3 DUP2 DUP4 CALLDATACOPY PUSH0 DUP4 DUP4 ADD MSTORE POP POP POP JUMP JUMPDEST PUSH0 PUSH2 0x5B7 PUSH2 0x5B2 DUP5 PUSH2 0x567 JUMP JUMPDEST PUSH2 0x54D JUMP JUMPDEST SWAP1 POP DUP3 DUP2 MSTORE PUSH1 0x20 DUP2 ADD DUP5 DUP5 DUP5 ADD GT ISZERO PUSH2 0x5D3 JUMPI PUSH2 0x5D2 PUSH2 0x4EB JUMP JUMPDEST JUMPDEST PUSH2 0x5DE DUP5 DUP3 DUP6 PUSH2 0x597 JUMP JUMPDEST POP SWAP4 SWAP3 POP POP POP JUMP JUMPDEST PUSH0 DUP3 PUSH1 0x1F DUP4 ADD SLT PUSH2 0x5FA JUMPI PUSH2 0x5F9 PUSH2 0x4E7 JUMP JUMPDEST JUMPDEST DUP2 CALLDATALOAD PUSH2 0x60A DUP5 DUP3 PUSH1 0x20 DUP7 ADD PUSH2 0x5A5 JUMP JUMPDEST SWAP2 POP POP SWAP3 SWAP2 POP POP JUMP JUMPDEST PUSH0 PUSH1 0x20 DUP3 DUP5 SUB SLT ISZERO PUSH2 0x628 JUMPI PUSH2 0x627 PUSH2 0x3F1 JUMP JUMPDEST JUMPDEST PUSH0 DUP3 ADD CALLDATALOAD PUSH8 0xFFFFFFFFFFFFFFFF DUP2 GT ISZERO PUSH2 0x645 JUMPI PUSH2 0x644 PUSH2 0x3F5 JUMP JUMPDEST JUMPDEST PUSH2 0x651 DUP5 DUP3 DUP6 ADD PUSH2 0x5E6 JUMP JUMPDEST SWAP2 POP POP SWAP3 SWAP2 POP POP JUMP JUMPDEST PUSH2 0x663 DUP2 PUSH2 0x3F9 JUMP JUMPDEST DUP3 MSTORE POP POP JUMP JUMPDEST PUSH0 PUSH1 0x20 DUP3 ADD SWAP1 POP PUSH2 0x67C PUSH0 DUP4 ADD DUP5 PUSH2 0x65A JUMP JUMPDEST SWAP3 SWAP2 POP POP JUMP JUMPDEST PUSH0 DUP1 REVERT JUMPDEST PUSH0 DUP1 REVERT JUMPDEST PUSH0 DUP1 DUP4 PUSH1 0x1F DUP5 ADD SLT PUSH2 0x69F JUMPI PUSH2 0x69E PUSH2 0x4E7 JUMP JUMPDEST JUMPDEST DUP3 CALLDATALOAD SWAP1 POP PUSH8 0xFFFFFFFFFFFFFFFF DUP2 GT ISZERO PUSH2 0x6BC JUMPI PUSH2 0x6BB PUSH2 0x682 JUMP JUMPDEST JUMPDEST PUSH1 0x20 DUP4 ADD SWAP2 POP DUP4 PUSH1 0x1 DUP3 MUL DUP4 ADD GT ISZERO PUSH2 0x6D8 JUMPI PUSH2 0x6D7 PUSH2 0x686 JUMP JUMPDEST JUMPDEST SWAP3 POP SWAP3 SWAP1 POP JUMP JUMPDEST PUSH0 DUP1 PUSH1 0x20 DUP4 DUP6 SUB SLT ISZERO PUSH2 0x6F5 JUMPI PUSH2 0x6F4 PUSH2 0x3F1 JUMP JUMPDEST JUMPDEST PUSH0 DUP4 ADD CALLDATALOAD PUSH8 0xFFFFFFFFFFFFFFFF DUP2 GT ISZERO PUSH2 0x712 JUMPI PUSH2 0x711 PUSH2 0x3F5 JUMP JUMPDEST JUMPDEST PUSH2 0x71E DUP6 DUP3 DUP7 ADD PUSH2 0x68A JUMP JUMPDEST SWAP3 POP SWAP3 POP POP SWAP3 POP SWAP3 SWAP1 POP JUMP JUMPDEST PUSH32 0x4E487B7100000000000000000000000000000000000000000000000000000000 PUSH0 MSTORE PUSH1 0x22 PUSH1 0x4 MSTORE PUSH1 0x24 PUSH0 REVERT JUMPDEST PUSH0 PUSH1 0x2 DUP3 DIV SWAP1 POP PUSH1 0x1 DUP3 AND DUP1 PUSH2 0x76E JUMPI PUSH1 0x7F DUP3 AND SWAP2 POP JUMPDEST PUSH1 0x20 DUP3 LT DUP2 SUB PUSH2 0x781 JUMPI PUSH2 0x780 PUSH2 0x72A JUMP JUMPDEST JUMPDEST POP SWAP2 SWAP1 POP JUMP JUMPDEST PUSH32 0x4E487B7100000000000000000000000000000000000000000000000000000000 PUSH0 MSTORE PUSH1 0x32 PUSH1 0x4 MSTORE PUSH1 0x24 PUSH0 REVERT JUMPDEST PUSH0 DUP2 SWAP1 POP SWAP3 SWAP2 POP POP JUMP JUMPDEST PUSH0 DUP2 SWAP1 POP DUP2 PUSH0 MSTORE PUSH1 0x20 PUSH0 KECCAK256 SWAP1 POP SWAP2 SWAP1 POP JUMP JUMPDEST PUSH0 DUP2 SLOAD PUSH2 0x7DC DUP2 PUSH2 0x757 JUMP JUMPDEST PUSH2 0x7E6 DUP2 DUP7 PUSH2 0x7B4 JUMP JUMPDEST SWAP5 POP PUSH1 0x1 DUP3 AND PUSH0 DUP2 EQ PUSH2 0x800 JUMPI PUSH1 0x1 DUP2 EQ PUSH2 0x815 JUMPI PUSH2 0x847 JUMP JUMPDEST PUSH1 0xFF NOT DUP4 AND DUP7 MSTORE DUP2 ISZERO ISZERO DUP3 MUL DUP7 ADD SWAP4 POP PUSH2 0x847 JUMP JUMPDEST PUSH2 0x81E DUP6 PUSH2 0x7BE JUMP JUMPDEST PUSH0 JUMPDEST DUP4 DUP2 LT ISZERO PUSH2 0x83F JUMPI DUP2 SLOAD DUP2 DUP10 ADD MSTORE PUSH1 0x1 DUP3 ADD SWAP2 POP PUSH1 0x20 DUP2 ADD SWAP1 POP PUSH2 0x820 JUMP JUMPDEST DUP4 DUP9 ADD SWAP6 POP POP POP JUMPDEST POP POP POP SWAP3 SWAP2 POP POP JUMP JUMPDEST PUSH0 PUSH2 0x85B DUP3 DUP5 PUSH2 0x7D0 JUMP JUMPDEST SWAP2 POP DUP2 SWAP1 POP SWAP3 SWAP2 POP POP JUMP JUMPDEST PUSH0 PUSH2 0x871 DUP4 DUP6 PUSH2 0x7B4 JUMP JUMPDEST SWAP4 POP PUSH2 0x87E DUP4 DUP6 DUP5 PUSH2 0x597 JUMP JUMPDEST DUP3 DUP5 ADD SWAP1 POP SWAP4 SWAP3 POP POP POP JUMP JUMPDEST PUSH0 PUSH2 0x896 DUP3 DUP5 DUP7 PUSH2 0x866 JUMP JUMPDEST SWAP2 POP DUP2 SWAP1 POP SWAP4 SWAP3 POP POP POP JUMP JUMPDEST PUSH32 0x4E487B7100000000000000000000000000000000000000000000000000000000 PUSH0 MSTORE PUSH1 0x11 PUSH1 0x4 MSTORE PUSH1 0x24 PUSH0 REVERT JUMPDEST PUSH0 PUSH2 0x8D9 DUP3 PUSH2 0x3F9 JUMP JUMPDEST SWAP2 POP PUSH2 0x8E4 DUP4 PUSH2 0x3F9 JUMP JUMPDEST SWAP3 POP DUP3 DUP3 ADD SWAP1 POP DUP1 DUP3 GT ISZERO PUSH2 0x8FC JUMPI PUSH2 0x8FB PUSH2 0x8A2 JUMP JUMPDEST JUMPDEST SWAP3 SWAP2 POP POP JUMP JUMPDEST PUSH0 DUP3 SWAP1 POP SWAP3 SWAP2 POP POP JUMP JUMPDEST PUSH0 PUSH1 0x20 PUSH1 0x1F DUP4 ADD DIV SWAP1 POP SWAP2 SWAP1 POP JUMP JUMPDEST PUSH0 DUP3 DUP3 SHL SWAP1 POP SWAP3 SWAP2 POP POP JUMP JUMPDEST PUSH0 PUSH1 0x8 DUP4 MUL PUSH2 0x956 PUSH32 0xFFFFFFFFFFFFFFFFFFFFFFFFFFFFFFFFFFFFFFFFFFFFFFFFFFFFFFFFFFFFFFFF DUP3 PUSH2 0x91B JUMP JUMPDEST PUSH2 0x960 DUP7 DUP4 PUSH2 0x91B JUMP JUMPDEST SWAP6 POP DUP1 NOT DUP5 AND SWAP4 POP DUP1 DUP7 AND DUP5 OR SWAP3 POP POP POP SWAP4 SWAP3 POP POP POP JUMP JUMPDEST PUSH0 DUP2 SWAP1 POP SWAP2 SWAP1 POP JUMP JUMPDEST PUSH0 PUSH2 0x99B PUSH2 0x996 PUSH2 0x991 DUP5 PUSH2 0x3F9 JUMP JUMPDEST PUSH2 0x978 JUMP JUMPDEST PUSH2 0x3F9 JUMP JUMPDEST SWAP1 POP SWAP2 SWAP1 POP JUMP JUMPDEST PUSH0 DUP2 SWAP1 POP SWAP2 SWAP1 POP JUMP JUMPDEST PUSH2 0x9B4 DUP4 PUSH2 0x981 JUMP JUMPDEST PUSH2 0x9C8 PUSH2 0x9C0 DUP3 PUSH2 0x9A2 JUMP JUMPDEST DUP5 DUP5 SLOAD PUSH2 0x927 JUMP JUMPDEST DUP3 SSTORE POP POP POP POP JUMP JUMPDEST PUSH0 SWAP1 JUMP JUMPDEST PUSH2 0x9DC PUSH2 0x9D0 JUMP JUMPDEST PUSH2 0x9E7 DUP2 DUP5 DUP5 PUSH2 0x9AB JUMP JUMPDEST POP POP POP JUMP JUMPDEST JUMPDEST DUP2 DUP2 LT ISZERO PUSH2 0xA0A JUMPI PUSH2 0x9FF PUSH0 DUP3 PUSH2 0x9D4 JUMP JUMPDEST PUSH1 0x1 DUP2 ADD SWAP1 POP PUSH2 0x9ED JUMP JUMPDEST POP POP JUMP JUMPDEST PUSH1 0x1F DUP3 GT ISZERO PUSH2 0xA4F JUMPI PUSH2 0xA20 DUP2 PUSH2 0x7BE JUMP JUMPDEST PUSH2 0xA29 DUP5 PUSH2 0x90C JUMP JUMPDEST DUP2 ADD PUSH1 0x20 DUP6 LT ISZERO PUSH2 0xA38 JUMPI DUP2 SWAP1 POP JUMPDEST PUSH2 0xA4C PUSH2 0xA44 DUP6 PUSH2 0x90C JUMP JUMPDEST DUP4 ADD DUP3 PUSH2 0x9EC JUMP JUMPDEST POP POP JUMPDEST POP POP POP JUMP JUMPDEST PUSH0 DUP3 DUP3 SHR SWAP1 POP SWAP3 SWAP2 POP POP JUMP JUMPDEST PUSH0 PUSH2 0xA6F PUSH0 NOT DUP5 PUSH1 0x8 MUL PUSH2 0xA54 JUMP JUMPDEST NOT DUP1 DUP4 AND SWAP2 POP POP SWAP3 SWAP2 POP POP JUMP JUMPDEST PUSH0 PUSH2 0xA87 DUP4 DUP4 PUSH2 0xA60 JUMP JUMPDEST SWAP2 POP DUP3 PUSH1 0x2 MUL DUP3 OR SWAP1 POP SWAP3 SWAP2 POP POP JUMP JUMPDEST PUSH2 0xAA1 DUP4 DUP4 PUSH2 0x902 JUMP JUMPDEST PUSH8 0xFFFFFFFFFFFFFFFF DUP2 GT ISZERO PUSH2 0xABA JUMPI PUSH2 0xAB9 PUSH2 0x4EF JUMP JUMPDEST JUMPDEST PUSH2 0xAC4 DUP3 SLOAD PUSH2 0x757 JUMP JUMPDEST PUSH2 0xACF DUP3 DUP3 DUP6 PUSH2 0xA0E JUMP JUMPDEST PUSH0 PUSH1 0x1F DUP4 GT PUSH1 0x1 DUP2 EQ PUSH2 0xAFC JUMPI PUSH0 DUP5 ISZERO PUSH2 0xAEA JUMPI DUP3 DUP8 ADD CALLDATALOAD SWAP1 POP JUMPDEST PUSH2 0xAF4 DUP6 DUP3 PUSH2 0xA7C JUMP JUMPDEST DUP7 SSTORE POP PUSH2 0xB5B JUMP JUMPDEST PUSH1 0x1F NOT DUP5 AND PUSH2 0xB0A DUP7 PUSH2 0x7BE JUMP JUMPDEST PUSH0 JUMPDEST DUP3 DUP2 LT ISZERO PUSH2 0xB31 JUMPI DUP5 DUP10 ADD CALLDATALOAD DUP3 SSTORE PUSH1 0x1 DUP3 ADD SWAP2 POP PUSH1 0x20 DUP6 ADD SWAP5 POP PUSH1 0x20 DUP2 ADD SWAP1 POP PUSH2 0xB0C JUMP JUMPDEST DUP7 DUP4 LT ISZERO PUSH2 0xB4E JUMPI DUP5 DUP10 ADD CALLDATALOAD PUSH2 0xB4A PUSH1 0x1F DUP10 AND DUP3 PUSH2 0xA60 JUMP JUMPDEST DUP4 SSTORE POP JUMPDEST PUSH1 0x1 PUSH1 0x2 DUP9 MUL ADD DUP9 SSTORE POP POP POP JUMPDEST POP POP POP POP POP POP POP JUMP INVALID LOG2 PUSH5 0x6970667358 0x22 SLT KECCAK256 AND DUP11 CREATE2 0xE7 0xB4 INVALID 0x2D 0xA9 0x28 0xFC MULMOD 0xE5 0xFB RETURNDATACOPY SSTORE LOG2 LOG4 GAS 0x4D 0xE7 PUSH3 0x561F5A PUSH25 0xC4F994C77F107D64736F6C634300081A003300000000000000 "
		},
		"gasEstimates": {
			"creation": {
				"codeDepositCost": "594000",
				"executionCost": "623",
				"totalCost": "594623"
			},
			"external": {
				"getVote(string)": "infinite",
				"keys(uint256)": "infinite",
				"resetVotes()": "infinite",
				"vote(string)": "infinite",
				"votemap(string)": "infinite"
			}
		},
		"methodIdentifiers": {
			"getVote(string)": "baa40e5c",
			"keys(uint256)": "0cb6aaf1",
			"resetVotes()": "b9830ff1",
			"vote(string)": "fc36e15b",
			"votemap(string)": "12c63985"
		}
	},
	"abi": [
		{
			"inputs": [
				{
					"internalType": "string",
					"name": "name",
					"type": "string"
				}
			],
			"name": "getVote",
			"outputs": [
				{
					"internalType": "uint256",
					"name": "",
					"type": "uint256"
				}
			],
			"stateMutability": "view",
			"type": "function"
		},
		{
			"inputs": [
				{
					"internalType": "uint256",
					"name": "",
					"type": "uint256"
				}
			],
			"name": "keys",
			"outputs": [
				{
					"internalType": "string",
					"name": "",
					"type": "string"
				}
			],
			"stateMutability": "view",
			"type": "function"
		},
		{
			"inputs": [],
			"name": "resetVotes",
			"outputs": [],
			"stateMutability": "nonpayable",
			"type": "function"
		},
		{
			"inputs": [
				{
					"internalType": "string",
					"name": "name",
					"type": "string"
				}
			],
			"name": "vote",
			"outputs": [],
			"stateMutability": "nonpayable",
			"type": "function"
		},
		{
			"inputs": [
				{
					"internalType": "string",
					"name": "name",
					"type": "string"
				}
			],
			"name": "votemap",
			"outputs": [
				{
					"internalType": "uint256",
					"name": "voteNums",
					"type": "uint256"
				}
			],
			"stateMutability": "view",
			"type": "function"
		}
	]
}